:020000040800F2
:10000000F8FF072405050008C7FA0308B5FA030836
:10001000C9FA0308D5FA0308E1FA03080000000052
:10002000000000000000000000000000EDFA0308DE
:10003000EFFA030800000000D50A04080D0B0408BD
:1000400099020008CDFB0308DFFB0308E5FB03086A
:100050000D7D04089902000861FB030867FB030893
:100060006DFB030873FB030879FB0308092F0408E1
:10007000192F0408292F0408392F0408492F0408D0
:10008000592F0408692F040899020008D157040861
:10009000E1570408D9570408E95704087FFB03080F
:1000A000F9FB0308FFFB030805FC03080BFC03082E
:1000B0000FFC030815FC03081BFC03089902000849
:1000C00099020008B1FC0308B7FC0308193F0408B3
:1000D000253F04087BFC030881FC030887FC030818
:1000E000A3FB0308D3FB03080000000045FC030842
:1000F0004BFC030863FC03085DFC0308792F04082C
:1001000099020008B185040821FC0308990200083F
:100110008DFC030893FC030839FC03083FFC03082B
:10012000892F0408992F0408A92F0408B92F04085F
:10013000C92F040899020008D9FB03089902000896
:1001400000000000000000000000000000000000AF
:10015000D92F0408E92F0408F92F040899FC030893
:100160009902000899020008990200089902000803
:100170009902000899020008990200080000000096
:1001800099020008990200089FFC0308A5FC0308D7
:10019000313F0408990200089902000899020008FA
:1001A00099020008990200089902000899020008C3
:1001B000990200089902000899020008BDFC030892
:1001C000C3FC03089902000899020008990200087C
:1001D000FDFA0308F1FA03089902000899020008E1
:1001E0009902000899020008990200089902000883
:1001F0009902000899020008990200089902000873
:100200009902000899020008990200089902000862
:1002100069FC03086FFC030875FC030899020008D9
:1002200099020008990200089902000800000000E5
:1002300099020008990200080000000099020008D5
:100240009902000899020008990200089902000822
:100250009902000899020008990200089902000812
:100260009902000899020008990200089902000802
:100270009902000899020008ABFC03080000000086
:100280009902000899020008990200080000000085
:080290000000000099020008C3
:10029800FEE70000254AD2F8883043F47003C2F81C
:1002A8008830234A136803F00F03062B05D8136818
:1002B80023F00F0343F0070313601E4B1A6842F044
:1002C80001021A6000221A611B4A19680A4018497B
:1002D8001A600A68120705D50A6822F00F0242F070
:1002E80007020A60002215499A61DA611A62996266
:1002F8001349D962134919635A639963DA63196414
:100308005A64196821F4802119601A660E4B1B681B
:100318001B0C1B04B3F1005F02D20C4B01221A60C4
:100328000B4B43F2D2021A60704700BF00ED00E0A9
:1003380000200052004402587FEDF6EA0002020253
:100348000000FF01800201010010005C08810051DB
:1003580000400052F0B5D1B020220021614C05A820
:100368002FF01EFD4C2200210DA82FF019FDC022F0
:10037800002120A82FF014FDE36823F00403E360B4
:1003880063689804FCD531F0ADFA42F20203984252
:100398004FD9554BD3F8F42042F00202C3F8F420A9
:1003A800D3F8F43003F002030193019B0023029376
:1003B800A36943F44043A361A36903F44043029350
:1003C8004A4BDA6A42F00102DA62DB6A03F001039F
:1003D8000293029B434A93699904FCD53F21012269
:1003E8004FF4803305260591A02102244FF480673D
:1003F8000DA81A94CDE90D23CDE918610022042136
:1004080040231F920A93CDE91D12CDE91B14032145
:10041800CDE91023CDE906120822CDE91644CDE92D
:100428000823CDE90B7335F0B1FBB8B130483EF085
:10043800A9FF002303932D4BDA6A22F00102DA6246
:10044800DB6A03F001030393A36943F44043A36108
:10045800A36903F440430393039BBBE700234FF4D2
:100468008022302531902A96CDE920234FF40013BD
:10047800CDE92F7020A84293CDE92B54CDE92D6406
:1004880036F036F908B11B48D1E71999192305A8A0
:100498004B431899B3FBF1F3B3FBF5F205FB1232AA
:1004A8001A99003AB3FBF1F118BF012240F050FC51
:1004B80008B11148BBE70C4B1A6842F080021A6079
:1004C800D3F8F42042F00202C3F8F420D3F8F43051
:1004D80003F002030493049B31F012FA35F04EFB4B
:1004E80051B0F0BD004802580044025800040058BA
:1004F8004C9A04085E9A0408789A04080446DFF8BF
:100508002CD00B490B4A0C4B03E051F8040B42F872
:10051800040B9A42F9D300200849094A01E041F83E
:10052800040B9142FBD320463FF082B8F8FF072422
:10053800701F060800000024540100245401002400
:10054800F838002440F8044B40F8045B40F8046B8A
:1005580040F8047B40F8048B40F8049B40F804AB57
:1005680040F804BB40F804CB40F804DB6846704709
:10057800036830B40D4611465A7C03EB82032A46C1
:100588001B699C680023A44630BC604773B51D46B0
:10059800C36C044616468DF807101BB1D3E9033225
:1005A8001B0493619DF8073053B1A36C0DF107014B
:1005B8006068D3E903321B0493610122FFF7D8FF77
:1005C800002D08DDA36C31466068D3E903329361DE
:1005D8002A46FFF7CDFFE36C13B1D3E903329361E9
:1005E80002B070BDF0B5134A0346134C4FF0010E2C
:1005F800176800222568114610466FEA050C8B42E1
:1006080001EB050603DC2B4402B12360F0BDACEB23
:100618000102F6084000013102F00702BE5D0EFA41
:1006280002F232424FF0010218BF40F00100C0B29E
:10063800E5E700BF5401002458010024002A49BA04
:100648004FF0000389B270B51546B8BF02F17F05B7
:10065800C2B01446ED11A34201DA802B0ED1EDB9D8
:1006680014F07F0208D0644202A904F07F0458BF46
:1006780062425200FFF77CFF42B070BD02AA22F826
:1006880013100133E7E74FF4807202A90190013695
:10069800FFF76EFF0198AE42F5DBE1E70026FAE7C7
:1006A80013B590F8322090F8383090F840109A42FC
:1006B80003D92D492D4812F01EF8436B3BB9038D21
:1006C800F02B16D1838DB3F5A07F1AD1284B02EBFE
:1006D800820203EB420413F81230194363884385FE
:1006E800A388C385E38880F83030238980F83130C7
:1006F8001BE0AA2B09D1838DB3F5A07F15D11D4B23
:10070800E5E7F02B11D11C4BE1E7872B04D1838D52
:10071800F02B0AD1194BDAE7802B1ED1838DA02B41
:1007280001D1174BD3E7802B15D0438D01AA80F850
:100738004210A0F85630C38D8DF804103621A0F869
:1007480058300023A0F85A30A0F85C300123FFF796
:100758001DFF02B010BD0B4BB9E7502BE5D1838DBF
:10076800A02BE2D1084BB2E78C9A0408B4290508FB
:10077800D000002480000024A80000245800002491
:100788003000002408000024F8000024C08D17F071
:100798000AB8408D17F007B87FB50C6806460D46B5
:1007A800B4F8560016F0FFFF0090B4F8580016F0A1
:1007B800FAFF022E019033D9A86813F04FFF78B3DF
:1007C800B4F85A00B4F85630C01A013016F0EBFFEE
:1007D800022E029027D9A86813F040FF18B3B4F886
:1007E8005C00B4F85830C01A013016F0DCFF012E56
:1007F80003900FD9686813F031FF638D84F85400B3
:10080800A4F85630E38DA4F858300023A4F85A30E1
:10081800A4F85C30694604201BF0A0F904B070BD50
:10082800B4F85A00D2E7B4F85C00DEE70000000034
:100838000B462DE9F0432DED028B87B0586802AACC
:1008480001A913F063FE019B002B40F08380484907
:10085800484811F047FF029B04AA03A953F828004F
:1008680013F054FE039B012BF1D9049B08F10108F6
:10087800186813F09BFD049B0546586813F096FD15
:10088800019B044604AA03A9B8FBF3F003FB1080FC
:10089800029B53F8200013F039FE039B012BD6D995
:1008A800049B186813F082FD049B8146586813F076
:1008B8007DFD00FB05F309FB143307EE103A05EB49
:1008C800090306EE103AB8EEC75BB8EEC66B38EE11
:1008D800058B26EE056BBDEEC66B16EE103A1F446F
:1008E800231807EE103AB8EEC77B27EE057BBDEE5E
:1008F800C77B17EE103A1E44019B4345ABD8B0EEB8
:10090800087B05EE906A28EE078BB7EE007B87EE32
:10091800086B07EE907AB8EEE77BB8EEE58B27EE2A
:10092800067B28EE068BFDEEC77B17EE900A16F0C5
:100938003AFFFDEEC87B049017EE900A16F033FFDD
:1009480004A9059002201BF009F907B0BDEC028B41
:10095800BDE8F0834FF000089FED038B46464746FD
:10096800CAE700BFAFF300800000000000000000ED
:10097800A29A0408B429050870B5D1E900600C46AC
:1009880013F014FD0546A06813F010FD86F83050EA
:1009980086F83100062070BD022837B50D680DD1E4
:1009A800486813F003FD0123C4B201AA3621284682
:1009B8008DF80440FFF7EAFD85F8424095F84200BB
:1009C80016F0F1FE03B030BD13B50446084613F027
:1009D800EDFC40BA022301AAADF8040037212046F5
:1009E800FFF7D4FD062002B010BDF7B50C46D1E9DB
:1009F800007013F0DBFC0646A06813F0D7FC054630
:100A0800E06876BA13F0D2FC40BA6DBA0623ADF8A6
:100A180004006A4638463321ADF80060ADF802504C
:100A2800FFF7B4FD062003B0F0BD10B50446084634
:100A380013F0BCFC424200F00303204602F003021C
:100A480058BF534284F83230FFF72AFE062010BD03
:100A580030B5056804462DED088B85B0B0EE408BA7
:100A6800B0EE419BB0EE42BB8DED000B8DED021B4D
:100A780075B1B0EE420B2DF09BF9B0EE40ABB0EE85
:100A88004B0B2EF0DDFD00229FED156B954203DC2C
:100A980005B0BDEC088B30BD636838EE065B03EB30
:100AA8000213013293ED027B93ED004B37EE497B45
:100AB80034EE484B27EE403B2AEE077BAAEE043B78
:100AC800A0EE047B35EE035B83ED005B39EE065B3D
:100AD80035EE077B83ED027BD8E700BFAFF30080DC
:100AE80000000000000000002DE9F74F466F8B461C
:100AF80053881546F068984230D8726929888A4226
:100B08002CD33469EF88BC4228D8D6F818C0B5F879
:100B180004E0F44522D38842824602F1010803F139
:100B2800010938BF8A467445A8EB0008A9EB0109FA
:100B380038BF744667451FFA88F828BF674693424E
:100B480094BFCAEB0302CAEB0202A4B20132BFB2DD
:100B58001FFA89F9520092B2BC4203D9012003B0AE
:100B6800BDE8F08F3369F168E31AB5F800C0AAEB65
:100B780001017068AAEB0C0C019208FB0313A98809
:100B8800611A013400EB430009FB01C1A4B20BEB6D
:100B980041012FF0BFF8019ADEE738B5456F1446DA
:100BA8000B46D5E909120819904288BF541A2BB18F
:100BB800286A2246014418462FF0ACF86B6A204692
:100BC80023446B6238BD2DE9F84316469588128890
:100BD80088467488416FA41A8B6801344F6803FBF8
:100BE80005205B00640007EB4007A4B21FFA83F9F5
:100BF800F388AB4202D20120BDE8F88301354146B3
:100C080038462246A0444F44ADB22FF083F8EFE7B0
:100C1800406F134610B500680C4619B1BDE8104086
:100C280002F0DCBA0122194602F0E9FA204610BDAA
:100C38002DE9F04F0C4687B005224FF001096946AF
:100C4800606813F0F7FD03A90622A06813F0F2FD0F
:100C5800E06813F0ABFB0546206913F0A7FB0646D6
:100C6800606913F0A3FB0023DDF80080039F194699
:100C7800DDF804E09E4503DC062007B0BDE8F08FF0
:100C880018F803A0BA1C072409FA04F7013117EA77
:100C98000A0F174614BFB44684468D42CCF3072B7F
:100CA80002F801CC02F802BC06DD013C0232B4F1C4
:100CB800FF3FE9D10133DDE70021FBE7F0B5002371
:100CC80006460D462DED028BD1E9017089B0ADF8CD
:100CD8000430C30705D484074FD10268364B9A42C3
:100CE8004BD101AC13F062FB8DF80400032E4BD9F5
:100CF800E868810745D10268304B9A4241D115F026
:100D08009EFDB0EE408BE868C20705D4830709D181
:100D18000268294B9A4205D113F048FB07EE900A66
:100D2800B8EEE78B7E6841F2D241304615F03EF8C6
:100D3800052202A913F07EFD41F2D2213046029D20
:100D480015F034F8052205A913F074FD0599002261
:100D580014F8013BDBB907EE902AB6EE006BB8EE4B
:100D6800E77BA7EE086BFDEEC67B17EE900A16F040
:100D78001AFD09B0BDEC028BF0BD19F095FB0446D5
:100D8800B4E7B7EE008BBEE7B7EE008BCAE7203BAF
:100D9800D8B25F28DCD85B009BB2E818EB5C4078DF
:100DA80043EA0023981C013300B21BB20856CB5605
:100DB800C31A1A4412B2CBE7302E0508882B05084F
:100DC80008B5036D3BB142F21070D3E903321B043E
:100DD80093613FF013FF062008BD08B5036D33B1DA
:100DE80042F21070D3E9033293613FF007FF062007
:100DF80008BD0000C36C10B504461BB1D3E903322B
:100E08001B049361636C13B1D3E9033293614CF211
:100E180050303FF0F3FE636C1BB1D3E903321B047F
:100E280093614CF250303FF0E9FE636C13B1D3E9A3
:100E38000332936104483FF0E1FEE36C13B1D3E958
:100E480003329361062010BDF049020008B5002363
:100E580001211A46FFF79AFB02483FF0CFFE062011
:100E680008BD00BFF04902004B682DE9F04F5D68EE
:100E780089B00C4642F2E211284614F097FF052289
:100E880005A913F0D7FC059B41F21261284600938F
:100E980014F08CFF00F00703022B1BD103A9C00834
:100EA80005F0C3FC0646A06800F00703022B15D125
:100EB80004A9C00805F0B9FC0446049B4FF00009DA
:100EC80004EB030A54450DD3484616F06CFC09B0F0
:100ED800BDE8F08F8368C6680393E4E78368C46855
:100EE8000493EAE72046354606F00DFA8346204685
:100EF800002706F025FA039B044606EB0308454540
:100F0800E0D2284606F0FFF90190284606F018FAC4
:100F1800019905467A1C8B4506D1BFB2009BDB5D63
:100F280099441FFA89F9CDE71746E8E74B6807B5F2
:100F38000093CB8D4A8D034906F0D8F903B05DF8CC
:100F480004FB00BFB19A0408F0B595B008461146F5
:100F58001A4606AB00250193524B00930E2312F05C
:100F6800CFFE602004F078FD4F4B044645630360D4
:100F7800069B4360BDF81C3003854385BDF82030CF
:100F88008385C385042380F838300D9890B103AA6F
:100F980002A9039513F0BAFA02980A232F4684F897
:100FA8003800C0B2584304F057FD606394F83830F5
:100FB800AB421FDC94F838200E9991FBF2F302FB48
:100FC800131384F832300F9B1398E363109B84F853
:100FD80040309DF8443084F84130129B606284F8B8
:100FE800433008B104F038FD0A9BE060002B36D18D
:100FF8002E480CE0039B04AA05A9CDE9047753F811
:1010080025001AF0B7FE059B052B02D0284812F0E0
:101018004FF9049B0A2618686E4313F0C7F9636BEF
:1010280001359855049B586813F0C0F9636B334435
:101038005880049B986813F0B9F9636B334498801F
:10104800049BD86813F0B2F9636B3344D880049BCF
:10105800186913F0ABF9636B1E443081A6E7099851
:1010680008B141F053FD60640A9841F04FFDA06457
:101078000B9808B141F04AFDE0640C9808B141F0C2
:1010880045FD228D002320652046A4F85620A28D18
:1010980084F85430A4F85820A4F85A30A4F85C30E6
:1010A80015B0F0BDD89B0408009F0408EE9A040808
:1010B800D69A0408994273B50446BDF8180051D869
:1010C800658D9D424ED982424CD8E58D854249D9DD
:1010D80094F85450BDB1B4F856508D42B4F85A50F3
:1010E80088BFA4F856109D42B4F8585038BFA4F8E9
:1010F8005A309542B4F85C5088BFA4F8582085420D
:1011080038BFA4F85C0094F8305029442B440E12E0
:101118008DF801108DF80330191294F831308DF8DC
:1011280002101A44034420468DF8006011128DF80D
:1011380005201A128DF807308DF8041004232A218F
:101148008DF806206A46FFF721FA04232B21204652
:101158000DEB0302FFF71AFA00232C2120461A464A
:10116800FFF714FA02B070BD37B50446084613F00D
:101178001DF90546E28D2046638D013A013B92B286
:101188009BB2009200221146FFF794FFA36CD3E9AB
:1011980003329361E36C1BB1D3E903321B049361FF
:1011A800638DA9B2E28D60685A43FFF747FAE36C92
:1011B80013B1D3E903329361062003B030BD2DE9A2
:1011C800F7430C46D1E9005013F0F0F80646A06842
:1011D80013F0ECF80746E06813F0E8F88046206959
:1011E80013F0E4F88146606913F0E0F8698D04466D
:1011F800B1422BDDE88DB84228DD18FA86F2013AB3
:1012080093B219FA87F2013A92B2904294BF0090D1
:1012180000928B42BAB2284628BF0B46B1B2FFF7FC
:1012280049FFAB6CD3E903329361EB6C1BB1D3E993
:1012380003321B04936109FB08F2A1B26868FFF747
:10124800FDF9EB6C13B1D3E903329361062003B0C7
:10125800BDE8F08330B504468BB0FFF7CBFDE56BF6
:10126800002D5DD12046FFF7F1FD2B462A461121BE
:101278002046FFF78BF9552304AA3A2120468DF81A
:1012880010300123FFF782F942F210703FF0B6FCEC
:1012980094F84130002B40D02B462A462121204685
:1012A800FFF774F90023132120461A46FFF76EF959
:1012B80042F210703FF0A2FC0023204629211A4672
:1012C800FFF764F932483FF099FC2046FFF7E8F948
:1012D80042F210703FF092FC0020049416F063FA7A
:1012E8000590002016F05FFA0690608D16F05BFA04
:1012F8000790E08D16F057FA0890002016F053FA80
:1013080004A909900620FFF75AFF236D13B1D3E90A
:101318000332936106200BB030BD1A462021BEE788
:101328002846002501AA694613F0F0F8009B9D4263
:10133800CBD2019B03AA02A953F8250013F0E6F8C3
:10134800039B012204A9186813F074FAF0B120462F
:10135800DDE90423012B117893BF002303F1FF3348
:1013680001321A46FFF712F942F210703FF046FCBC
:10137800029B012B0AD9039B586813F017F8002821
:1013880004DD4FF47A7358433FF038FC0135CDE75C
:10139800F04902002DE9F3410C46D1E9008013F031
:1013A80005F80546A06813F001F80646E06812F053
:1013B800FDFF0746206912F0F9FF80B2BBB200902A
:1013C800B2B24046A9B2FFF775FE062002B0BDE8EA
:1013D800F0812DE9F74F1388814654888A46D588CD
:1013E8001646E41AB2F804B00135D0F87480013416
:1013F800A5EB0B05D8F81C706400D8F80430ADB222
:10140800A4B2F08858452CD2B9F87AC07388B2884B
:101418006044B9F87810368862440B4480B231448D
:1014280092B29BB2009089B23846FFF743FEBB6C7C
:10143800D3E903329361FB6C1BB1D3E903321B047C
:10144800936105FB04F2D8F804107868FFF790F868
:10145800FB6C13B1D3E903329361012003B0BDE8FB
:10146800F08F5146184622460BF1010B2EF052FC24
:101478000346A2441FFA8BFB2344C2E72DE9F0433D
:101488000D4687B005220E68686803A913F0D2F9E3
:10149800A86812F08BFF8046E86812F087FF814643
:1014A800286912F083FF0746686912F07FFF10FA77
:1014B80089F517FA88F31FFA89F2013D0446013BC2
:1014C8001FFA88F1ADB230469BB20095FFF7F2FDE6
:1014D800B36CD3E903329361F36C1BB1D3E90332E4
:1014E8001B04936104FB07F000274400049884421E
:1014F80028BF0446002C2546B8BF04F1FF052D126D
:10150800AF4217DB14F0FF0225EAE57509D0644203
:1015180003997068E4B201EB052158BF6242FFF7F6
:1015280027F8F36C13B1D3E903329361062007B0AF
:10153800BDE8F08303994FF48072706801EB0721CE
:101548000137FFF715F8DBE72DE9F04F814688688A
:1015580097B00D46C307D1E9004608D410F003033D
:1015680040F093800168944A914240F08E804FF099
:1015780001080DF14B0A12F019FF8DF84B00E868CD
:1015880012F014FF0290286912F010FF766842F2F8
:10159800DA110990304614F009FC12F007FF41F205
:1015A800F2310690304614F001FC12F0FFFE41F2D1
:1015B80012210746304614F0F9FB12F0F7FE41F20B
:1015C8006A510490304614F0F1FB12F0EFFE41F23C
:1015D800D2218346304614F0E9FB052213A913F003
:1015E80029F9139BB9F1050F0C936BD9686912F0AF
:1015F800DDFE0390686912F0D9FE039A0302B9F17F
:10160800060FC2F307229BB242EA030305935CD09C
:10161800A86912F0CBFE8146A86912F0C7FEC9F38B
:10162800072903029BB249EA03039DF81860FFB239
:10163800039306FB07F34FEA4309636A1BB948465D
:1016480004F00AFAE060E368DBB19DF810300A9311
:101658005FFA8BF30B93F3080D9307937B4308937F
:101668000AEB08031093BDF824300693013BFB18DE
:101678001193109B9A452AD1636A13B9E06804F064
:1016880013FA062017B0BDE8F08F00F00702022A0F
:1016980004D0A3B90368494A934206D118F004FF5D
:1016A80082462EF0B5FB804669E7454A934206D14B
:1016B800052213A913F0BEF8DDE913A85FE7414836
:1016C80011F0B0FF4FF6FF7305930023ADE71AF84A
:1016D80001BB0A9B5B45CCD80B9B5B45C9D39DF8E6
:1016E8001030ABEB030B089B1BFB03FB00231FFA1B
:1016F8008BFB1D46EAB20BEB030C97421FFA8CFCDE
:1017080058D8029A731EBDF8081013FA82F3628D36
:101718009BB29A421AD9BDF8442020460092069AF4
:10172800FFF7C8FCA36CD3E903329361E36C1BB1E8
:10173800D3E903321B0493614A46E1686068FEF707
:1017480017FFE36C13B1D3E903329361029B33446F
:1017580002938EE70C99085CE1680E9000200991CD
:101768000F99C0F1070801EB000E0E99013041FAFC
:1017780008F803991FFA8EFE18F0010F884605999C
:1017880018BF88460999082821F81E80E8D1013237
:1017980013FA82F15FFA82FE1CFA82F0C90080B265
:1017A80089B20F910D998E45D4D3079A0135134408
:1017B8009BB29FE70022EBE7302E0508E83A0508C0
:1017C80078390508F59A04082DE9F04F0E46804649
:1017D800C8682DED028BA7B0D1E9005712F0E6FDDD
:1017E8000590306912F0E2FDB8F1050F0F9040F254
:1017F800D780706912F0DAFD0446706912F0D6FDE0
:10180800C4F307240302B8F1060F9BB244EA0303AA
:101818000A9300F0C880B06912F0C8FD0446B069A8
:1018280012F0C4FDC4F3072403029BB2234300242F
:10183800B8F1070F0393CDE9164440F2B98016AA10
:1018480017A9F0691AF096FA179B022B40F2AD809F
:10185800169B05221AA9186812F0ECFF169B1A9C11
:10186800586812F0A3FD169B1FFA80FB986812F0C7
:101878009DFD83B20293B8F1080F00F09D80306A95
:1018880012F0ECFE04907F6840F6FA21384614F016
:101898008DFA12F08BFD41F2F231C3B2384608EEF0
:1018A800103A14F083FA12F081FD41F2C261C3B21A
:1018B8003846089314F07AFA12F078FD41F22A615A
:1018C8000D90384614F072FA12F070FD42F2E211EF
:1018D800C3B238460B9314F069FA05221DA912F019
:1018E800A9FF1D9B41F2BA613846109314F05EFAC5
:1018F800052220A912F09EFF40F6DA213846DDF8CD
:1019080080A014F053FA052223A912F093FF964BF6
:10191800239A1A606B6A3BB9089B0B9A03FB02F087
:10192800400004F099F8E860049B4BB144B1E868C2
:1019380030B1029B214603FB0BF252002EF0EAF96C
:1019480041F21261384614F031FA00F00703022B15
:1019580035D118A9C00804F068FF0790B06800F0F6
:101968000703022B30D119A9C00804F05EFF064610
:10197800199BF318119300230693BDF80C301393A9
:10198800119B9E4224D36B6A13B9E86804F08CF863
:10199800069815F008FF27B0BDEC028BBDE8F08F64
:1019A8004FF6FF730A93002341E7A346029462E7C8
:1019B800A3460294049466E70023049363E78368CC
:1019C8001893C3680793C9E78368C6681993CFE774
:1019D8003046002705F097FC8046304605F0B0FCFD
:1019E800189B079A0646DDF81C901A449145C7D201
:1019F80048460C9205F087FC0990484605F0A0FC83
:101A0800099981467B1C88450C9A40F0AB80109B55
:101A1800BFB2564A13F80790002313609DF834307C
:101A2800022B22D0032B28D0012B02D11AF8073021
:101A38001360049B73B3BDF82C70BDF820200023FD
:101A48000992099A9A425BD903FB0BF14FF00008FF
:101A580003FB07F204EB410152000E911FFA89F1D2
:101A68001291BDF828100C9133E01AF817100AEB00
:101A780047077B7803EB0123DAE707EB47070AEB15
:101A880007011AF8073048781B04897803EB00230C
:101A98000B44CDE71FFA89F7CFE714B3584520D890
:101AA80002998B421DD818EE100ACDE91432FEF7C0
:101AB80099FD039B98420ABF0E99DDF830C031F8B2
:101AC80018C0DDE91432E86808F1010820F802C0FE
:101AD80002321FFA88F012998842DED301339BB292
:101AE800AFE718EE100ACDE91432FEF77BFD139B21
:101AF80000280C9A0CBF9C469446DDE91432E2E7B4
:101B0800BDF814106A8D4B1E3B449BB29A4225D9EE
:101B1800BDF83C20099802F1FF3C604480B2009077
:101B28002846FFF7C7FAAB6CD3E903329361EB6C35
:101B38001BB1D3E903321B049361089BE96803FBDB
:101B480007F268685200FEF713FDEB6C13B1D3E996
:101B580003329361069B4B449BB20693059B4B440F
:101B680005930DE71F4641E754010024580100245E
:101B780010B50446084612F071FD034684F841008A
:101B880038B1002321211A462046FEF7FFFC062023
:101B980010BD02462021F7E710B50446084612F0AA
:101BA8005DFD034638B1002310211A462046FEF792
:101BB800EDFC062010BD02461121F7E72DE9F04F94
:101BC8000D4691B006468868D1E9004812F0EEFB50
:101BD8000390E86812F0EAFB042E049040F29F801C
:101BE800286912F0E3FB8146D8F8045041F2F2313B
:101BF800284614F0DBF812F0D9FB42F2DA11064657
:101C0800284614F0D3F812F0D1FB40F6FA2183B23B
:101C180082462846059314F0C9F812F0C7FB41F232
:101C28009A71C7B2284614F0C1F88346D8F8040060
:101C3800002240F6DA210430CDE90B2212F0B2F886
:101C480000286FD0406800286CD012F0AFFB1FFA54
:101C580080F80BAA58460CA91FFA86FB12F056FC0E
:101C680040F6D22128461FFA8AF514F09FF805227B
:101C78000DA912F0DFFD3D4B0D9A1A6005FB0BF321
:101C8800626A4FEA430A2AB95046069303F0E4FE13
:101C9800069BE060364A00211160B8F1000F06D0BB
:101CA800C84541DD03FB07F009FB00F010606A003E
:101CB8002B464FF000090692D945A3EB050252D1F5
:101CC800BDF80C10059A4B1E1A4493B2628D9A42C5
:101CD8001CD9BDF810202046551E2E44B6B20096D9
:101CE800FFF7E8F9A36CD3E903329361E36C1BB106
:101CF800D3E903321B0493615246E1686068FEF73A
:101D080037FCE36C13B1D3E903329361636A13B907
:101D1800E06803F0C9FE062011B0BDE8F08F4FF06F
:101D2800000961E7804694E71249134810F0DAFC8D
:101D38000B993846CDE908320791FEF753FC07990D
:101D480000B251F8200012F031FBE168DDE90832F9
:101D580021F8180008F101089845E9D1069B09F116
:101D680001091344A8E79046F6E700BF5401002490
:101D7800580100240C9B04086C2905082DE9F04340
:101D88008046B1B00D46DFF8C491D1E9004010F0AB
:101D980003064ED10268634B9A424AD1052203A931
:101DA80012F048FD039B0F960E93049B10935E4B15
:101DB800A660C9F80030A86812F0F8FA0646E86884
:101DC80012F0F4FAB8F1040F074640D9286912F066
:101DD800EDFA804640F61C4003F03EFED9F80010AC
:101DE80002462061002900F08C80069B1BB90E9BDF
:101DF800002B00F0868006AB11A8009340F61C4328
:101E080001F0C0FA002840F08680B8F1000F21D117
:101E1800BDF86030BDF86250DFF834915D436D0065
:101E2800636A2BB3AB4227D22A464049404810F098
:101E380062FC18F039FB3F4901F0B2F93E4BA06053
:101E4800C9F80030002306900E931093B3E74FF0C3
:101E58000008BFE79DF852509DF85330DFF8F49022
:101E680015FB03F5ADF8BC60ADF8BE70ED01D7E722
:101E7800284603F0F1FDE060E3681BB92F492C48C0
:101E880010F030FC07930022BDF86030494611A8D5
:101E98000D94089301F096FC002839D1B8F1000F91
:101EA80025D1BDF86220B1B2BDF860302046013AB4
:101EB800013B12FA87F213FA86F392B29BB20092B0
:101EC800BAB2FFF7F7F8A36CD3E903329361E36C76
:101ED8001BB1D3E903321B0493612A46E1686068A9
:101EE800FEF746FBE36C13B1D3E903329361656AED
:101EF8001DB9E06803F0D8FDE5600025A0680795E6
:101F080058B9206903F0D0FD062031B0BDE8F08350
:101F18000B490C48B4E70C49FBE701F07EF9A560D2
:101F2800EFE700BF78390508A30B0008129B0408E7
:101F38006C290508DED10408190C00082A9B04083E
:101F48002F9B0408B4290508469B04085C0100245B
:101F5800CF0B0008DB1300082DE9F0478146B2B02B
:101F68000E46DFF88CA1D1E9007010F003046DD1A2
:101F78000268544B9A4269D1052202A912F05AFC10
:101F8800029B11941093039B12934F4BBC60CAF8A9
:101F98000030B9F1020F67D0B9F1060F40F08F8019
:101FA800B06812F003FA0546F06812F0FFF904462B
:101FB800306912F0FBF98046706912F0F7F90646AD
:101FC80040F61C4003F048FDDAF80010024638617C
:101FD800002970D0089B13B9109B002B6DD008AB5B
:101FE80013A8009340F61C4301F0CCF9002844D113
:101FF800B9F1050F9FBF0446BDF86A60BDF8688057
:102008002546CDE90B5434444544013C013D0E942A
:1020180006FB08F40D956400204603F01DFDF860EA
:1020280038B322464BF6EF612DF0BAFEFB6800226A
:102038002649099313A8BDF868300F970A9301F051
:10204800C1FB0546D8B12249224814E018F02CFA01
:10205800214901F0A5F8214BB860CAF800300023E7
:1020680008901093129394E70026B04634463546FC
:10207800A6E71B491B4810F035FB1B49E4E7B86885
:1020880010B101F0CAF8BD60386903F00DFDF968B8
:10209800204613F00DF80590404615F084FB069095
:1020A800304615F080FB05A90790032019F056FD6E
:1020B80032B0BDE8F0870C46E6E71C46E4E70B487B
:1020C80011F0B0FA78390508A30B0008F10A0008E6
:1020D8002F9B0408B4290508DED10408190C000850
:1020E8002A9B04086C290508469B04085A9B040887
:1020F8006001002470B50C46164612F057F90546E3
:10210800204612F053F90446304612F04FF9074AB8
:10211800C0F3C403E00002EA052200F4FC601343A4
:10212800184380B2400040F0010070BD00F8FFFF86
:102138007FB590F843600446458DB0071CD0B007C2
:102148000BD58D4201DD002907DA91FBF5F005FB7F
:1021580010110029B8BF491909B2F0070CD5E68D4E
:10216800B24201DA002A07DA92FBF6F006FB1022E7
:10217800002AB8BF921912B2A9422DDAE08D824224
:102188002ADA002928DB002A26DB180A8DF80F3006
:1021980092B28BB28DF80E00009220461946FEF7D7
:1021A80089FFA36CD3E903329361E36C1BB1D3E9D4
:1021B80003321B04936101220DF10E016068FEF7E2
:1021C800D7F901220DF10F016068FEF7D1F9E36C30
:1021D80013B1D3E90332936104B070BD2DE9F7431D
:1021E8001E4690F8433005460F4613F00303144685
:1021F800BDF8288041D100292FDB428D8A422CDD91
:10220800C18DA14229DD002CBEBF36191C4636B24D
:10221800A3199942BCBF0E1B36B2002E1DDDA2B217
:10222800BBB2501E1946304480B200902846FEF7D3
:1022380041FFAB6CD3E903329361EB6C1BB1D3E97B
:1022480003321B049361324641466868FEF7F6F98B
:10225800EB6C13B1D3E90332936103B0BDE8F083AB
:1022680004EB090209F101094346394612B228462E
:10227800FFF75EFF4E45F3DCEFE74FF00009F9E7A3
:102288002DE9F04F0D4689B0D1E9009012F08EF893
:102298000746A86812F08AF80646E86812F086F839
:1022A8000446286912F082F86FF00103A2B2C4F163
:1022B800010563430693B3B20026059383B20599DB
:1022C8004846029353008A1A02990133009112B2C8
:1022D8001BB239B2FFF782FFBBB20493A64203DBFD
:1022E800062009B0BDE8F08F002D04DB069B013CF9
:1022F80002331D44069301364846B3B205EB460542
:102308000793A3B201350393039A059B4FEA42084A
:10231800A3EB020B049B08F101080FFA8BFB13FADD
:1023280086F10FFA88F8029B5A4609B20093434691
:10233800FFF754FF079A059B48465700A3EB020A8C
:1023480001370FFA8AFA3FB2DDE903239918029B95
:102358005246009309B23B46FFF740FF049B079A99
:102368004846991A029B5A46009309B24346FFF71A
:1023780035FF4846DDE90323991A029B524600932C
:1023880009B23B46FFF72AFFA8E72DE9F3410C46BF
:10239800D1E9008012F00AF80546A06812F006F8A4
:1023A8000646E06812F002F80746206911F0FEFFC1
:1023B80080B23BB2009032B2404629B2FFF70EFF1E
:1023C800062002B0BDE8F0812DE9F04F0F4687B036
:1023D800D1E9004011F0EAFF8046B86811F0E6FF45
:1023E8000646F8681FFA88F911F0E0FF05463869D3
:1023F80011F0DCFF6FF001031FFA85FAC5F1010740
:102408006B430FFA88F11AFA86F20293B3B212B24A
:102418000491019383B220460393FFF789FE019B41
:1024280020460499A3EB0A02039B12B2FFF780FE31
:102438001AFA88F132B2039B09B220460492FFF7D8
:1024480077FEA9EB0A014FF00008204609B2DDE942
:102458000332FFF76DFEA845039B03DB062007B098
:10246800BDE8F08F002F04DB029A013D02321744C9
:10247800029208F101082046AEB21FFA88F219FA52
:1024880088FB07EB480703920FFA8BFB019A013789
:10249800594612FA85F212B2CDE90432FFF748FE26
:1024A800039B2046A9EB030A0FFA8AFADDE90432F6
:1024B8005146FFF73DFE019B594620469A1B049B57
:1024C80012B20592FFF734FE5146204609EB060A80
:1024D800A9EB0606DDE90432FFF72AFE019B039A01
:1024E8000FFA8AFA36B220469A185146049B12B25D
:1024F8000592FFF71DFE31462046DDE90432FFF75D
:1025080017FE019B039A514620469A1A049B12B261
:10251800CDE90332FFF70CFE31462046DDE90332F0
:10252800FFF706FE97E7F8B50C46D1E9007011F001
:102538003DFF0546A06811F039FF0646E06811F036
:1025480035FF32B283B2384629B2FFF7F1FD0620D3
:10255800F8BD2DE9F7431D4690F8433006460C4672
:1025680013F003031746BDF828903FD1002A2DDB4E
:10257800428D8A422ADDC18DB94227DD002CBEBFBB
:102588002D191C462DB263199A42BCBF151B2DB2DA
:10259800002D1BDDA1B2BAB24B1E00922B449BB298
:1025A800FEF788FDB36CD3E903329361F36C1BB17A
:1025B800D3E903321B0493612A4649467068FEF743
:1025C8003DF8F36C13B1D3E90332936103B0BDE86E
:1025D800F08304EB080108F101084B463A4609B2BA
:1025E8003046FFF7A5FD4545F3DCEFE74FF000085F
:1025F800F9E70000000000002DE9F04F0C460E68D6
:102608008246002560682DED048BAFB007AA06A9A5
:1026180011F07CFF069B3561002B71D0A06811F08A
:10262800C5FE0490E06811F0C1FE8046206911F0F3
:10263800BDFEBAF1050F814653D9606914F0FFF861
:10264800BAF1060FB0EE408B4DD0A06911F0AEFE86
:102658000390E06911F0AAFE05460698000103F010
:10266800FBF90446306100284AD04FF0000A069B67
:1026780053453AD8DDED037AB5EE408B0893B8EEB2
:10268800E70B07EE905AF1EE10FA3369B8EEE71B44
:1026980009938DED0A0B8DED0C1B04D0B0EE482B81
:1026A80008A8FEF7D5F91FFA89F39FED8B9A6FF00A
:1026B80000490022039319EE107A4D46DDE908130C
:1026C8008A4238DB19EE103A4B456BDC306903F06F
:1026D800EBF90023062033612FB0BDEC048BBDE875
:1026E800F08F9FED7B8B0395B7E7079B0EAA0AA98E
:1026F800103453F82A0011F009FF0A9B012B03D864
:10270800764977480FF0EEFF0E9B0AF1010A186828
:1027180011F04CFE07EE900A0E9BB8EEE77B586866
:1027280004ED047B11F042FE07EE900AB8EEE77B59
:1027380004ED027B9BE706EE905A01321033B8EEA7
:10274800E66B13ED047BB4EEC67BF1EE10FA44BFE2
:10275800FDEEC76B16EE905A06EE907AB8EEE66B71
:10276800B4EEC67B06EE909AB8EEE66BF1EE10FA80
:10277800C4BFFDEEC77B17EE907A13ED027BB4EE73
:10278800C67BF1EE10FA44BFFDEEC76B16EE909AC9
:10279800B8EEC96BB4EEC67BF1EE10FAC8BFBDEE59
:1027A800C79B8DE708980022DDF824C0431E144615
:1027B8006146904213DC002304F1FF3E0EAA02EBAF
:1027C8008301734547DB08EB09020DF1380A4FF026
:1027D800000B12B25C4554DC09F1010972E707EEFF
:1027E800909A0CEB031391ED024BB8EEE77B93ED57
:1027F800026BB4EEC74BF1EE10FA04D5B4EEC67B0B
:10280800F1EE10FA09D9B4EEC67BF1EE10FA1CDD30
:10281800B4EEC74BF1EE10FA17DB1F2C19DC37EEBC
:10282800447B36EE446B91ED005B87EE064B93EDEF
:10283800007B2EAB37EE457B03EB84030134A4EE1B
:10284800075BBDEEC57B03ED207A134610310132DC
:10285800AFE7244955E708685A1C51F804CF60458A
:102868000DDD2EA901EB830141F880CC2EA901EBE7
:10287800820242F8800C002BA0D0013B9EE7134651
:102888009FE7DAF800108F42A6DDDAF804309D429F
:1028980018DA8D4204980592C8BFCAF800509F42C2
:1028A800BAF80010B8BFCAF80470DAF80430013377
:1028B8005B1A014403981BB2009009B23046FFF737
:1028C80048FE059A0BF1020B0AF1080A82E700BFDD
:1028D800000000000000000000000080A29A040828
:1028E800B42905086C9B04082DE9F04F85B01446FF
:1028F8001E465B1ABDF9387083EAE37CBDF93C805B
:10290800BA1AACEBE37C002AB8BF5242624505DD37
:1029180035463E462F460D4621462C46B14205DD3A
:1029280025463C462F460D4631462E46A7EB040A5F
:10293800751A89461FFA88FBBAF1000FABB245F346
:102948004E05B8BFCAF1000ABC42ACBF4FF0FF3712
:102958000127624502934FF0000329DCB1453DDDB4
:10296800002B5FD01FFA88F20E92224605B0BDE810
:10297800F04FFFF7EEBDA5EB0A05013309F1010998
:10298800AAB22DB21BB2002D10DA029D012B1544FC
:102998002DB21BD10A465B4621460390FFF7C8FBC0
:1029A8003C4403980FFA89F1002324B20FFA89F9FD
:1029B800B145E0DD002B35D01FFA88F20E920A46A9
:1029C800214605B0BDE8F04FFFF708BC0A46CDF830
:1029D80000B021460390FFF701FCE1E7A5EB0A05EB
:1029E800013309F10109AAB22DB21BB2002D0FDA89
:1029F800029D012B15442DB20DD15B462246039052
:102A0800FFF796FB3C4403980FFA89F1002324B2A0
:102A18000FFA89F9A2E72246CDF800B00390FFF734
:102A280098FDEFE705B0BDE8F08F0000000000005A
:102A38002DE9F04F0C460E688246002560682DEDA2
:102A4800048B8DB005AA04A911F060FD049B3561C3
:102A5800002B76D0A06811F0A9FC0746E06811F0B9
:102A6800A5FC8046206911F0A1FCBAF1050F81464A
:102A780055D9606983074FD10268574B9A424BD1A9
:102A880013F0DDFEB0EE408BBAF1060F4BD0A06913
:102A980011F08CFC0390E06911F088FC054604985D
:102AA800000102F0D9FF306100284AD0044683466D
:102AB8004FF0000A049B534537D8DDED037AB5EE95
:102AC800C08B0693B8EEE70B07EE905AF1EE10FABA
:102AD8003369B8EEE71B07938DED080B8DED0A1BE4
:102AE80004DDB0EE482B06A8FDF7B2FF4FF0010A4F
:102AF800BFB21FFA88F80FFA89F9049B10349A4577
:102B08003AD3306902F0D0FF0023062033610DB0BC
:102B1800BDEC048BBDE8F08F9FED2D8BB4E79FEDE6
:102B28002C8B0395BBE70025FBE7059B08AA06A9A4
:102B38000BF1100B53F82A0011F0E8FC069B012B4F
:102B480003D8264926480FF0CDFD089B0AF1010A53
:102B5800186811F02BFC089B09EE100A586811F050
:102B680025FC07EE900AB8EEC99BB8EEE77B0BEDA3
:102B7800049B0BED027B9DE794ED007B30460AF148
:102B8800010AFDEEC77B17EE903A14ED027B3B4439
:102B9800FDEEC77B1BB217EE902A14ED047BCDF82F
:102BA80004904244FDEEC77B12B217EE901A94EDE2
:102BB800027B3944FDEEC77B09B217EE905A4544B3
:102BC8002DB20095FFF790FE97E700BFAFF30080A6
:102BD8000000000000000000882B0508A29A0408E5
:102BE800B42905082DE9F04F0B6807460C46D1E9D2
:102BF80001802DED088BC60793B00BEE103A4FF00D
:102C08000003ADF82C3005D485075CD102687E4BF3
:102C18009A4258D10BAE11F0C9FB8DF82C00E06830
:102C280011F0C4FB0546206911F0C0FB052F049084
:102C380050D9606911F0BAFB062F05904DD0A069F4
:102C4800810744D10268714B9A4240D113F0F7FDD5
:102C5800B0EE408BA069C20705D4830709D102688A
:102C6800694B9A4205D111F0A1FB07EE900AB8EE24
:102C7800E78BD8F8044041F2D241B6EE009B4FF002
:102C88000109204613F092F805220CA9B0EE49ABD1
:102C980011F0D0FD0C9B41F2D2212046069313F08F
:102CA80085F805220FA911F0C5FD0F9F29B2BDF9BE
:102CB8001020884616F8013B93B9062013B0BDECE6
:102CC800088BBDE8F08F17F0EFFB0646A7E7B7EED5
:102CD800008BBFE74FF6FF730593B7EE008BC8E78D
:102CE800203BD8B25F28E5D85B000698069CB0EE7A
:102CF800496B9BB2B0EE495B1844E45C407844EA07
:102D0800002423B2FB560793631C1BB2FB56523BAD
:102D180007EE903AA31C1BB2B8EEE77BFB56A7EE72
:102D2800086B523B07EE903AB8EEE77BA7EE085BDC
:102D3800BDEEC66BBDEEC57B17EE103A9BB208938D
:102D480016EE103A9BB20393079B5BB10334039BC7
:102D58004FF0000A24B2A8EB030B0FFA8AFC079B7A
:102D6800634508DC089B43449846039BA8EB03088B
:102D78000FFA88F89EE73B57A0B2202B00F1020417
:102D880024B23DD0523BB0EE4A6B013007EE903A88
:102D980000B2B8EEE77B3856A7EE086B5238FDEE66
:102DA800C67BB0EE4A6B17EE903A07EE900A04988D
:102DB800B8EEE77BA7EE086BFDEEC67B17EE905AE0
:102DC8000544BCF1000F02D0B9F1000F08D00BEB9D
:102DD80003012AB24FF0000909B20AF1010ABCE75F
:102DE8005B44BDF914002DB21BB2CDE900501BEEB7
:102DF800100A0993FFF778FD099B2A461946ECE764
:102E08004FF00109E9E700BF302E0508882B0508B7
:102E18002DE9F7430C46D1E9009011F0C7FA0646B0
:102E2800A06811F0C3FA0746E06811F0BFFA8046BF
:102E3800206911F0BBFA0546606911F0B7FA2DB2A6
:102E480000B20FFA88F3009501903AB2484631B2C1
:102E5800FFF74AFD062003B0BDE8F0832DE9F04FE7
:102E68000E4685B0D1E9007011F0A0FA0446B068AA
:102E780011F09CFA0546F06811F098FA0290306952
:102E88000FFA85F911F092FA8046706911F08EFAFE
:102E9800BDF908B086B24A4621B25B460FFA88FAF5
:102EA8003846454400960391FFF753FB53464A467C
:102EB800039938460096FFF791F96A1E5B46039915
:102EC800384612B20096FFF744FB029B38464A4642
:102ED8001C4400965346611E09B2FFF77FF906208D
:102EE80005B0BDE8F08F2DE9F3410C46D1E900802B
:102EF80011F05CFA0546A06811F058FA0646E06839
:102F080011F054FA0746206911F050FA80B23BB22A
:102F1800009032B2404629B2FFF71BFB062002B0F0
:102F2800BDE8F08137B5CA8905460C4600924B8A40
:102F3800098AFEF7BFF8AB6CD3E903329361EB6CF7
:102F48001BB1D3E903321B049361A289E9685200DB
:102F58006868FDF70DFBEB6C13B1D3E9033293619D
:102F6800EB68A3610023A38103B030BD2DE9F043D2
:102F78000C46C9B08146D1E9005017F095FA0746CA
:102F8800A06811F013FA8046E06811F00FFAB9F161
:102F9800040F06463FD9206911F060FB0346002460
:102FA80028468DF8183003960794CDE90158CDE9E5
:102FB800044401F061F8064601A9286101F0FBFC10
:102FC8002349304601F0F4FC2249384600F0E8F87D
:102FD800A86008ABC4F58072A868191900F0FEF85B
:102FE80000281ADCBDF810301BB101A92846FFF7EC
:102FF80099FF6C6A1CB9E86802F056FDEC60A86895
:1030080000F00BF9304601F044F8002306202B614C
:1030180049B0BDE8F0830023C1E7044408A930465D
:10302800224601F051F8002807DA304601F03CF852
:103038000949024609480FF05EFB241A002CC8DD36
:1030480008AB2246191818462CF092FEC1E700BFBB
:1030580069300008DED10408919B0408B4290508EA
:103068002DE9F843DDF824800D468146164601F027
:10307800A5FC416804466D1860D48268B6185DD412
:1030880007687B8DAB4259DDFB8DB34256DB484662
:1030980001F012F8A369D3B902687B6A520043B9F8
:1030A800104602F0D9FCA06158B9254925480FF00F
:1030B80019FB934203D2244922480FF01CFBFB68FA
:1030C800A361A369FB60ABB2E68123826382A38913
:1030D8004BB3E389B3421ED1237D13B198F8033073
:1030E800CBB198F80020194BA16903EA022398F89C
:1030F8000120881CD20002F4FC621A4398F80230BE
:10310800A06142EAD3031B0243EA12230B80A3897E
:103118000133A38111E021463846FFF703FFE6811A
:10312800ABB223826382237D002BDAD098F8033078
:10313800002BD6D1ADB2E68125826582BDE8F88341
:10314800AA9B04086C290508BE9B040800F8FFFF29
:103158000A46014904F0CAB834A0040838B505463F
:10316800142002F079FC002304467E218360C360AA
:1031780003610A4BC0E9003528460FF07FFC40F296
:103188001261A06060680FF079FC40F24B61E0606A
:1031980060680FF073FC2061204638BD64A0040805
:1031A80037B505460C462CF033FE0146284616F086
:1031B800FDFD054620462CF02BFE0146204616F064
:1031C800F5FD054A6946CDE90050022024F0AAFE23
:1031D800FFF7C4FF03B030BD3C26050810B5044610
:1031E800104611F075FF0146A0680FF0BBFB0628DA
:1031F80003D0BDE8104011F0D9B8002010BD52002E
:10320800C068490042F0010241F0010108B50FF021
:10321800B3FBBDE8084011F0C9B810B54721044612
:1032280040680FF02BFC0623C4E90133C4E90333DB
:10323800BDE810400FF064BB08B5FFF7EEFF0620AD
:1032480008BD0331C36E21F003018B4229BF5B1A0D
:103258000023C366836E24BFC91881661846704769
:103268002DE9F8430446037B4FF000080F464FF062
:10327800FF094546D0E900063278FBB113424FEA10
:1032880045054FEA530318BF0135013FF5D1C4E99D
:10329800000628462373BDE8F883013601383278E2
:1032A800B8F1000F06D0BAB99046FF2286F8009010
:1032B8008023E3E7FF2AFBD14FF001080028ECD177
:1032C800A6684FF40072236F2046314698470028BD
:1032D800E4D16FF00100DEE76FF00500DBE72DE9D0
:1032E800F74F04460E461D464FF00008037B9146F3
:1032F8004FF0100A47464FF0FF0BD0E900010A785B
:1033080033B313424FEA470796F800C04FEA530316
:1033180018BF0137AC44654529D1BAF1010A08D074
:103328000136EDE7013101380A78B8F1000F0BD00A
:1033380022B16FF0050003B0BDE8F08F9046FF2280
:1033480081F800B08023DCE7FF2AFBD14FF00108A9
:103358000028E7D1A1684FF40072236F204601913D
:10336800984701990028DED16FF00100E3E739F8AA
:1033780002EBBE4504D12373C4E900012878DAE7DB
:103388000135C8E72DE9F04F044685B0002A00F062
:103398000F8201674FF40071C0E91A230E9B43673F
:1033A8000023438303620363036443624363436408
:1033B800836283638364C362C363C365C0E91333F1
:1033C800C0E91533FFF73DFF0546A060002800F06F
:1033D800E4800146236F0222204698470228009085
:1033E80004D00222104605B0BDE8F08F2A786B7829
:1033F80043EA02231BB2283336D00622F2E7B8F597
:10340800007F00F2D781236F42462946204698471D
:103418004045E6D1EA782B7943EA0223A3836A7808
:10342800AB7843EA0223E3836B79032B01D00822AC
:10343800D8E7294604F110000022CB79002A71D17F
:10344800112B03D0A3F12107012FF0D81F0903F096
:103458000F03A773E3730B7A032BE8D80132033108
:1034680000F8013B032AE8D1236F042229462046AD
:1034780098470428B5D12A786B78A97843EA0223BB
:10348800EA7842EA0122022AB7D9190AFF29B4D1F7
:103498000099A2F10208DBB20232C03B114400914C
:1034A8001D2B00F27F8101A252F823F00734000897
:1034B8003734000837340008373400085735000817
:1034C800373400083734000837340008AD370008AF
:1034D800373400083734000837340008AD3700089F
:1034E800373400083734000837340008AD3700088F
:1034F800AD370008AD370008AD370008AD37000814
:10350800AD370008AD370008AD370008AD37000803
:1035180037340008D336000859360008AD3700089C
:1035280033350008112B96D081E7B8F5007F00F2FB
:103538004181236F424629462046984740457FF4FB
:1035480050AF2A786B7843EA022363838CE7B8F597
:10355800007F00F22F81236F424629462046984774
:1035680040457FF43EAF2F46B8F1100F7FF645AFC8
:10357800BA46A8F111031AF8018B019318F0EE026C
:103588007FF43BAF4FEA18131021204608F00F08CC
:103598000293FFF756FE814608B9032222E7022369
:1035A80011371946029B11FB083804EB880B00F110
:1035B800FF384146CBF820001AF8013BBA451A44B7
:1035C80001F8013FF8D1510020465746FFF739FE70
:1035D8000028E2D009F10F03CBF830000393002351
:1035E800194618F801CF00EB410A9946E646BEF1A4
:1035F800010E1CD26344039E61449BB246454FEAC8
:1036080043039BB2EDD1019B9342FFF4F6AE114602
:103618002046FFF716FE0028BFD08118CBF84000DF
:1036280088420BD1019BB3EB02089DD11CE709F13D
:1036380001062AF8029B1FFA86F9D8E7029E17F8B6
:10364800013B16B90B2B3FF6D8AE00F8013BE7E774
:10365800B8F5007F00F2AE80236F42462946204627
:10366800984740457FF4BDAE05F14107B8F1400FDA
:103678007FF6C3AE17F8413CA8F14108A7F140090D
:1036880013F0F00F7FF4B9AE4FF48071204603F0C9
:103698000302FFF7D6FD00283FF47FAF02F11403C1
:1036A800464944F8230011F8012B454B19F801CB82
:1036B80033F81230B94503FB0CF340F82230F2D14D
:1036C8004137B8F1000FD1D1CEE6B8F5007F71D8F7
:1036D800236F424629462046984740457FF481AEED
:1036E800A38B002B3FF489AEE38B002B3FF485AE10
:1036F8002A78032A7FF49BAE04F1100000210B46C0
:10370800013115F8117017B1112F7FF490AE003BFD
:1037180018BF01231F1D54F83770002F3FF46DAEFA
:1037280004EBC3035B6A002B3FF467AE10F8013B60
:10373800143354F82330002B3FF45FAE0329DED155
:10374800E77BA17B17FB01F7002F3FF456AEF90189
:1037580020464031B1F5807F38BF4FF48071FFF7C4
:1037680070FD206600283FF43DAEB91C2046890153
:10377800FFF767FD606600283FF434AE009B002722
:103788006560C3F3080627602773AEB1C6F50072FB
:10379800A919236F20469847721E206015443A469F
:1037A80065601FE6236F42460021204698475BE686
:1037B800052217E6042215E6324613E600A504089A
:1037C80080A404082DE9F04F032A95B0044611910E
:1037D80000F2BD83837B4273DB000D93C37BDB0068
:1037E8000E93002343610383039306930293029A83
:1037F800E38B934200F2A98300202FE0628B002A1A
:103808003AD0069B069901338A429BB240F0DF808A
:1038180002260025D4E9000758B9A7684FF40072BA
:10382800236F20463946984720B9022016E0012622
:10383800F2E701373B78012E00F1FF3043EA052516
:10384800ADB2F4D100234FF6D072237325F02703CD
:103858009BB29342C4E9000703D0062015B0BDE827
:10386800F08F039B5D4015F00705F6D101336561C4
:1038780025839BB206960393A27BE37BD4F860B0C2
:1038880012FB03F30793636E48330593079B5B4270
:103898000493079B2046049AD34236BF134600265A
:1038A8005E1C351E18BF012504EBC5010B6C0A6BA5
:1038B800096AFFF714FDB0F1000A80F28A80CAF1A4
:1038C8000000C0B20028C9D1A27B0823E17B01987F
:1038D80012FB03FA4FEAC10BA18B13FB02038B42C5
:1038E80000F2E6815146029BE28B5B4493428ABF19
:1038F800029B5A46D21A637BD94004915AD0DA40C7
:10390800059257D0019A032B276E22FA03F292B23E
:10391800ADF8482002F1FF320A440599ADF84A2073
:10392800029A22FA03F292B2ADF84C2002F1FF3269
:103938000A44ADF84E2000F08E820AEB4A034FF09D
:10394800000C4FEACA090893E34540F0BB81637B4A
:10395800002B40F02282637B049A2AFA03F39A42EE
:10396800C0F0CF82216ED44ECA1C0D46DDE904306A
:10397800584312F8023C013812F8017C02F10302A4
:103988004FEAC30303F4FC6343EAD70312F8067C47
:1039980006EA072743EA07034FEA032747EA132300
:1039A80025F8023BE5D112AA2046119B984700282A
:1039B80000F0CF82019B0D9A13440193019AA38BC7
:1039C80093423FF61BAF029B0E9A13440EE70693F1
:1039D80052E704EB4609B9F9148018D0514620463D
:1039E800FFF73EFC002801DA40426AE701230AF1AA
:1039F800FF3A03FA0AFA10EA0A0F02BF0AFA03FAB0
:103A08000AF1FF3AA0EB0A008044A9F81480264482
:103A18000BF1FC020021337C143354F82360336823
:103A280003FB08F31B12CBF800305B4643F8041F76
:103A38009A42FBD104EBC505D5F82480D5F834901B
:103A4800D5F844A0012553464A4641462046FFF78B
:103A580046FC002840F0EC80637B032B00F01481C7
:103A68000BF120034FF4B55A08935B461D6841F6E5
:103A780090571A6C0433D96FD3F8BC006E18691AC2
:103A8800151A1044D3F89CE00AFB05F506EB00096B
:103A9800A6EB000CD3F8DC60C0EB253201EB020882
:103AA8008D1AD969DA6D881B0E44AEEB0201724497
:103AB800A6EB020E164442180AFB0EFE7A4341F2A8
:103AC8005117784342F6CF17794300130913C0EB17
:103AD8002230C1EB223209EB0601921B43F8041C89
:103AE800A9EB0606C2EB2E3E08EB0201A8EB020288
:103AF800C3F8DC60A0EB0E00D961C3F8BC2005EB6D
:103B08000E02A5EB0E05DA630CEB0002ACEB00002D
:103B1800C3F89C50DA65089AD8679342A6D1059AEB
:103B2800A2F1400553F8202C4FF4B55753F818CCA0
:103B3800083553F8101C02F5004253F8080C2033DE
:103B48005618521AACEB0001604453F82C8C794398
:103B580053F824EC06EB000AA6EB000CC0EB21316D
:103B680053F83C0C02EB0109521A53F8341CA0EB31
:103B78000E068644A8EB01004144AEEB01088E44D2
:103B8800311807FB08F841F69057794341F251176D
:103B98007E4342F6CF1778433613484F0013C6EBDF
:103BA8002136C0EB21310AEB0E00A1EB0E01C0F368
:103BB8000920AAEB0E0E385CC1EB2838CEF3092E8B
:103BC80005F8100CA6EB080617F80E0005F8090C06
:103BD80009EB0100A9EB0101C0F30920C1F3092198
:103BE800385C795C05F80F0C05F80A1C02EB080133
:103BF800A2EB0808C1F30921C8F30928795C17F872
:103C0800082005F80E1C05F80B2C0CEB0602ACEB93
:103C18000606C2F30922C6F30926BA5C05F80D2C7C
:103C2800BA5D05F80C2C059AAA427FF47BAF35E003
:103C3800FFF6DAAE030903D01D443F2D3FF60DAE63
:103C480010F00F011BD020460891FFF709FB002850
:103C58000899FFF6C9AE0123013903FA01F10842B8
:103C680008BF9940164B08BF01F1FF315A5D08BFE4
:103C7800401A56F82230584300124BF822000135FA
:103C8800402D7FF4E0AEE7E6DBF80030059A002B24
:103C9800B8BFFF331B12803B02F8483C059B4033FA
:103CA8000593049B0133022B04937FF4F2AD0BE6DA
:103CB800019BC91A17E600BF00F8FFFF80A004089F
:103CC80000A50408626EBBF1100F02EBCC0116D1FF
:103CD8004FEA5C03BCF1070F03F1200388BF4031B2
:103CE80002EBC30207F103084FF0000EF24508D1BA
:103CF800089B0CF1010C09F108091F4424E64A4409
:103D0800F0E792F84030BAF1100F1078A3F1800371
:103D1800A0F1800007933ED1BEF1080F0EF0010517
:103D280008BF38312A44079B40F29B5611F8015BC3
:103D38000EF1010E5E43884B08F1030848BF06F2F6
:103D4800FF3605EBA626C6F309069E5D40F2DB2387
:103D580008F8066C079E73434FF4B07606FB0033F1
:103D68007D4E002BB8BF03F2FF33A5EBA323C3F3AB
:103D78000903F35C08F8053C40F216735843764B88
:103D880048BF00F2FF3005EBA020C0F309001B5C20
:103D980008F8043CAAE70132C5E75A000AFA03F119
:103DA800206E079201220F9103219A4001FA03F332
:103DB8000C93AAEB02030C9903EB43030B44002179
:103DC80010930891089B9B457FF6C5AD01EB410810
:103DD8004FF0000E36E005EB08031E460023CDE940
:103DE80009330B930B9DAA421CD0B4464FF000092F
:103DF8000EE01CF8035C09F10109099F2F441CF827
:103E0800025C09970A9F2F441CF8015C2B440A970F
:103E18004A450CF1030CECD1109D2E440B9D013545
:103E28000B95DFE7079D0330099F96440A9EEB40F8
:103E3800EF40EE4000F8037C00F8026C00F8013C0B
:103E48000C9B9844F245256EC5D8089B13440893EB
:103E58000F9B1944B6E7606E0BFB0AF140F29B52C8
:103E680040F2DB254318415C4FF4B07000268039DE
:103E780093F84030DFF8E0E04843803B5A4305FBC5
:103E8800030340F2167048BF02F2FF32002B4FEADC
:103E9800A222B8BF03F2FF3341434FEAA32348BF2E
:103EA80001F2FF315B428912B3457FF654ADD4F875
:103EB8006480082E3D464FF0000C08BF08F18008CA
:103EC800E2452F4605F1030501D80836ECE718F856
:103ED8003C000CF1080C8718C7F309071EF8077097
:103EE80005F8037CC7180844C7F30907C0F309009D
:103EF8001EF807701EF8000005F8027C05F8010C92
:103F0800DEE7206E03EB4308049A0027064602EB1F
:103F1800420CC11CF21C002511F803EC0135049B6E
:103F2800033102F803EC033211F805ECAB4202F856
:103F380005EC11F804EC02F804ECEDD10137059B0F
:103F480066444044BB42E4D10CE5002335E5052036
:103F580084E4012082E400BF80A00408006800BA5D
:103F68007047000070B543690446027B41655343BE
:103F78001C4A656852F821001B4E421E56F8211053
:103F88002A44521AB2FBF0F25A430733A06BDB08FB
:103F980007325B0003EBD203E36308B101F084FD51
:103FA80023680025E06B5D6101F056FDA06338B918
:103FB8000E4B4FF0FF306366FE2384F8283070BD47
:103FC800236858612846636D56F82320E264084A3E
:103FD80052F8233023654FF0FF33A364C4E910532C
:103FE800EDE700BF24A8040864A8040840A5040855
:103FF80084A80408F0B5446A0023651C14F81370FB
:1040080015F8130031F8136000EB0720864204D13D
:1040180001339342F2D10120F0BD0020FCE70000FB
:1040280038B5044628B30023124A80F828301D46C4
:104038004266806B08B101F037FD2368E0695D6175
:1040480008B101F031FD23680025606A9D6108B15F
:1040580001F02AFD236810220021201DDD61A563DF
:10406800E56165626561E5662BF09AFEA5612562EA
:10407800656738BD54A5040838B505464AF6643066
:1040880001F0EAFC044610B10560FFF7C9FF2046BD
:1040980038BD10B5044630B1FFF7C2FF2046BDE871
:1040A800104001F001BD10BD08B1406E70470148D5
:1040B800704700BF5DA5040820B143690BB1043007
:1040C80070471846704700002DE9F04F044697B036
:1040D80090F928304FF000090F910C9209930C9B2E
:1040E800994501D34E4615E00F9B03EB09050C9B40
:1040F800A3EB090694F928300233052B00F2438418
:10410800DFE813F0240006000C002C00E500220470
:10411800002E0BDA304617B0BDE8F08F072E0AD80C
:1041280094F92830099A9342DCD0002694F9283073
:10413800B1440993D3E7082229469F482BF046FE4D
:1041480038B19E4B6366FE2384F828304FF0FF3663
:10415800E0E7012384F828300826E7E7072EDFD9AF
:104168002846FFF7FBFE291D20630846FFF7F6FEE9
:104178000422E062002000F025FC0223904A84F823
:104188002830E36A6063934220D00FD8A2F58022DA
:10419800A2F2FE22934223D002F58632F0329342F5
:1041A800DAD1E36E002B6AD1864BCBE7864A93427D
:1041B80030D002F1105202F5BF2202F20E229342D1
:1041C800CAD1206B002860D1804BBBE7236B0D2B35
:1041D80001D07F4BB6E76369002BBDD07D4BB1E7BB
:1041E800236B0BB97C4BADE763690BB97B4BA9E734
:1041F800637B032B03D1E3690BB9794BA2E7E36E29
:10420800002BA9D104F52D532433E3664FF4004362
:104218002367A1E7206B08B9724B93E76369002B0A
:10422800E4D0E3690BB1704B8CE7637B032B15D8A3
:10423800012B15D96D4B4343B3F1553FECD80323FC
:10424800227BB0FBF3F001239340B3F5807F28BFB6
:104258004FF48073984205D9654B73E7062BE9D074
:10426800644B6FE700EB400001F0F6FBE06108B932
:10427800614B67E7236898610023A3616CE7236BB0
:10428800002B3FF469AF5D4B5CE76369002BADD051
:10429800636A0BB15A4B55E7637B022B13D0032B90
:1042A8000AD093B902288FD101F0D6FB60620028AA
:1042B800DED0002323624FE7227B012393409842FC
:1042C800F2D9504B3EE70628EDE74F4B3AE7226B11
:1042D800E36AB2423C4928BF32468B4200F0008371
:1042E8001CD801F1F83101F207118B4200F01F834D
:1042F80001F53D3101F20E218B4227D0A1F5802135
:10430800A1F2FE218B4200F0AB80161E236B40F316
:104318000E819E4240F20F833C4B13E73C498B428F
:1043280000F0018301F1516101F5803101F58971D6
:104338008B42EAD1637B022B00F0E282032B00F070
:10434800EE82002B00F0ED822F4B26E00C2A40F283
:10435800EC822846FFF702FE6060281DFFF7FEFD8D
:10436800A0602B7A23736A7A6273AE7AA673E87AAE
:10437800E073297B2174062A5DD8DFE802F0045C2B
:104388001351585C5A000122102B626104D8214A4B
:1043980022FA03F3DF070BD41F4B6366FE2384F86E
:1043A8002830C2E00322082B626101D0102BF3D120
:1043B800002E42D0194BF0E7A4A804086BA5040806
:1043C8005244484977A6040845544C50A6A6040808
:1043D80083A504089BA50408C0A50408D8A504085B
:1043E800EFA5040806A604081EA60408ABAAAAAAF4
:1043F8005DA6040832A6040840A504088EA6040891
:10440800BEA60408D2A60408ECA60408E0A704087F
:10441800414D41671601010017A704083DA704088C
:104428000122082B6261B7D84FF48B72B0E70222E1
:10443800B9E70422B7E7AD4BAFE708B1AC4BACE73F
:104448000039204618BF0121FFF78CFD00286CDBDE
:10445800A36D1BB12046D4E9011298470D2254E7F9
:10446800002A00F06282236F04F52D5B1192294621
:10447800129303230BF1240B11AA029312AB04F13C
:1044880074000193E36E00935B4600F0BBFA0028CA
:1044980001DA984B81E7129BE26E1A44E266226FBA
:1044A800A2EB0301216702D0002940F0178203F52F
:1044B8000043DA469B1A227B0A935B440D93636997
:1044C80053430733DB0805930D9B534529D9E36C08
:1044D800D4E90162B3420CD2236D93421DD2A36C7E
:1044E8009AF80020002B04934ADA042A33D9824B25
:1044F80053E7D4E914138148814F50F8230057F843
:104508002330E0645B181DD2934228BF134623650D
:1045180086424FF0FF33A364DED8616D4B1E052B36
:1045280012D90A9B002B80F2D4814FF0FF36236BFF
:1045380013B9032384F82830002EFFF6EBAD3FF4BF
:10454800EFADF3E51346E2E701312046FFF70AFD38
:104558000028B9DAE9E700230AF1010AA26418463B
:10456800059A9A42B0D0226C0133A16B8854226C10
:10457800E66B0132B2FBF6F106FB11222264EFE78B
:10458800D4E90F3605980AF1010A059900EB060CE3
:10459800A76BBCFBF3F003FB10C006EB030C17F88A
:1045A8000680ACEB010C0499385C0139BCFBF3FEC6
:1045B80003FB1EC3FB5C032905D8DFE801F00252A8
:1045C80055591344DAB2BA55616CD4E90F2300295E
:1045D80003F10106B8BF0599B6FBF2F3B8BF6164F1
:1045E800616C02FB136301392364616400297FF461
:1045F8006BAF134405994FF000085B1AB3FBF2F652
:1046080002FB1633627B049312F0010F237B4FF0F9
:10461800010214BF08271F46102B02FA07F714BF20
:104628000822079207F1FF3718BFB2FBF3F3BFB2B6
:1046380018BF07937B080693079B013B0793013339
:1046480000F0A481E36C089363680B930B9A089BB2
:10465800934280F09B81636900224FF0010E0E9314
:1046680032E00244D2B2AEE7034402EB5302F9E768
:104678001918A1EB0801A1EB030EA1EB000CA1EBAB
:104688000801BEF1000FB8BFCEF1000EBCF1000F5B
:10469800B8BFCCF1000C0029B8BF4942E64501DC9F
:1046A8008E4503DD8C45CCBF434603461A44D9E703
:1046B800207B08285FD02BD8022825D800283ED197
:1046C80014AB23F8120001320E9B9A42F0D1637B9F
:1046D800980740F1E380D90740F1CC80BDF850300D
:1046E800A269934253D3074B57E600BF29A7040892
:1046F80062A7040882A70408A7A7040864A80408F6
:1047080044A80408C4A70408042818D00020D7E740
:104718001028FBD1049B049E03F1010CD4E90E017F
:10472800BCFBF1F301FB13C3865DC05C013300EBF6
:104738000620B3FBF1F680B201FB163325E0B8F191
:10474800070F09DD049E4FF00008E36B0136B6FB46
:10475800F3F103FB116304938044A36B04990EFAED
:1047680000F0595CC8F108030138DBB2C0B241FA65
:1047780003F31840A4E70499A36B0E46585C01366E
:10478800E36BB6FBF3F103FB1163049398E703EBC8
:104798004301E269505C0A4451789278ADF85000C0
:1047A800ADF85420226AADF85210934274D2626A6E
:1047B800D35CADF85630E36D1E46002B4DD0BDF8E6
:1047C80050200DF14C0C0698C2EB0222616D714B22
:1047D8000244DFF8D4E153F82130CDF804C0DFF803
:1047E800CCC1B2FBF7F28DF84C20BDF852205CF832
:1047F80021C0C2EB02220244B2FBF7F28DF84D2031
:10480800BDF85420C2EB02220244B2FBF7F28DF845
:104818004E20BDF85620C2EB022202445E48B2FB8D
:10482800F7F250F821005EF821101B1A8DF84F207E
:10483800ACEB010C226D0E930B98089BA168C01A73
:104848000E9B891A8C4594BFCDF800C00091834215
:10485800089928BF03462046B047616D4D48E36C70
:1048680050F8211062685B1802D29A4228BF1A4693
:10487800E264E1E65A0702D5BDF8563099E7236AA3
:10488800012B09D1032214A92046FFF7B3FB002806
:104898000CBF3B4600238CE73B468AE75B070AD5FB
:1048A800BDF85230ADF85630BDF85030ADF8543040
:1048B800ADF852307FE7226A012A08D114A92046B0
:1048C800FFF798FB00280CBF3B460023EAE73B466E
:1048D800E8E74FF40043C4F86CB02367119A14E575
:1048E800022A22D9A369E26903EB43032888D11875
:1048F800D052AB7803228B70A3690133A36104E51E
:104908000626B24211D332462946D4E90830184463
:104918002BF000FA236A324601332362F5E40126BC
:10492800EFE70226EDE7032A03D80026FFE5002279
:10493800EBE40422E9E49B1B32462946606B2363BF
:1049480000F040F86063F2E5032E7FF6E9AB2846F5
:10495800FFF704FB636B984202D0104BFFF7F2BBE2
:1049680001230F4A84F82830E36A934202D00426D0
:10497800FFF7DCBBFF2384F82830236E002BF6D02A
:1049880020469847F3E7074BFFF7DCBB4FF0FF33B0
:10499800636499E524A8040864A8040806A8040820
:1049A800444E454913A8040884A8040844A80408E8
:1049B80000B1C165704700B18166704700B1806E73
:1049C8007047000070B5C9B1C0430A440C4D91420C
:1049D80001D1C04370BD11F8016B86EA000404F0F0
:1049E8000F0455F8243083EA101000F00F0383EA0F
:1049F800161355F8233083EA1010E8E70846E9E76C
:104A0800B8A804082DE9F04FB3B006468A460793C4
:104A18001368DDF8F0B0CB180B9200933D9B1B6830
:104A28000BEB030204923E9A12F004020C9205BFAB
:104A380003F1FF33079A4FF0FF33ABEB020208BFD5
:104A4800D3180693069B5A1C1A4202D1079B9B4512
:104A580009D200233D9A6FF0020013600B9A13608D
:104A680033B0BDE8F08F036A45680293D0F8388008
:104A7800D0E909930193C36B03930368352B00F2C4
:104A88000F87DFE813F036007E00A50011010D073F
:104A98002301490180010D07D30115027C020D078E
:104AA8000D07B4020D07E703520468040D070D074C
:104AB8009E040D07D2040D058005D70529060D07AC
:104AC8000D070D070D07A8060D070A074503E100A6
:104AD8005206DF019501DB01D006FF060D070D0721
:104AE8000D070D070D070D070D070D079B01D001D9
:104AF8008B060021C0E902110121C16101613E99C3
:104B080011F0010500F0BD8000998A4555D39846FB
:104B18009946019302933E9911F0020145D0012074
:104B28005F4654461D463060029BA4EB0A0475603C
:104B3800A7EB0B07C6F83880C6E90839019BB362B2
:104B4800039BF3630B9B1C603D9B1F603E9B13F014
:104B5800090F85D0421C83D041F2B053F2694FF659
:104B6800F1751FFA82FC4FEA124EB7FBF3F103FB13
:104B78001171002F00F0E8865B4600F0BABE2B46A4
:104B8800C9E7009B9A45FAD2544614F8013B836062
:104B98002B4600998C420DD33E998D074ED50222A3
:104BA8005F461D4632600120BEE7B1605446009959
:104BB8008A4543D214F8011B41E054469846994669
:104BC800019314F8011B02938160E2E72B46E3E7A7
:104BD800009B54469A45F9D214F8013BC3601F2143
:104BE800D6E9023000EB032700F02000B7FBF1F113
:104BF800C1EB4111791A014324D103F00F0108399F
:104C080018BF01210C98894678B91B094FF0010992
:104C1800083309FA03F0B0F5004F04D832FA03F369
:104C280018BF4FF0000941EA0909B9F1000F0DD08A
:104C380024235F4633604FF0FF3075E700211D469F
:104C4800F160CCE70121DDE75446F1E75F46022D2C
:104C58001DD908F00703033D4FEAD80873615B08C4
:104C6800B361002B40F0208105F00703AB423CD92B
:104C7800009B9C4236D33E9B13F002032DD00523A4
:104C88000DE05F465446A846A94601950295009B4B
:104C98009C4215D33E9B13F002030CD003233360D0
:104CA80081E75F465446F5E7009B9A45F9D254469A
:104CB8005F4614F8013BAB40083548EA0308C6E7ED
:104CC80014F8013BF7E75F465446D4E7009B9A4542
:104CD800F9D254465F4614F8013BAB40083548EA20
:104CE8000308C1E714F8013BF7E705F007034FF0A5
:104CF800000925F0070528FA03F8C5B3072D1AD8C7
:104D0800009B9C4214D33E9B13F002030BD0062356
:104D1800C5E75F465446F6E7009B9A45F9D25446E4
:104D28005F4614F8013BAB40083548EA0308E5E75D
:104D380014F8013BF7E706EB090342F62012083D99
:104D480003F802804FEA182809F10109B9F1030FA5
:104D5800D3D942F6201336F8039042F62213F35AB9
:104D6800DB439BB24B4550D02723336063E7009B5E
:104D7800A34215D83E9B13F0020113D007238EE7F8
:104D88005F465446F6E7009B9A45F9D2544600EB35
:104D9800090342F620125F4614F8011B9954D3E721
:104DA80014F8011B06EB090342F620129954CBE7CD
:104DB8005F465446D8E75F4654460FE0009B9A4545
:104DC800F9D254465F4614F8013BAB40083548EA2F
:104DD8000308072D0BD8009B9C4205D33E9B13F07C
:104DE8000203F2D033235AE714F8013BEDE75FFAE8
:104DF80088F3083D4FEA18280293049B9F420ED27D
:104E0800029B09F1FF3907F8013BB9F1000F33D0D4
:104E1800002DDED1049B9F4216D3092300E03423E2
:104E28000220336080E65F465446E6E75F46544614
:104E3800F0E73E9B980703D5262330E75F465446A4
:104E4800282392E75F465446009B9C42F1D2049A7D
:104E58001B1B21463846D21B934228BF13464B459D
:104E680028BF4B461A4605932AF054FF059AB9EB1A
:104E7800020914441744CDD17369D8077FF5E7AE0A
:104E88003E9BD90740F1EC8405F00703AB4240F2A2
:104E9800B284009B9C42C0F0AB843E9B13F002039B
:104EA80000F0A0842023FAE6032B04D10A235CE750
:104EB8005F465446FAE7012B4ED106F14003202203
:104EC800052106F55E6005934FF49073C6E90B3231
:104ED8002AF066FF06F1D0030822059901F8012B94
:104EE80099420591F9D106F1D00306F5A07209217E
:104EF80003F8011B9342FBD106F5A07306F5AC72CB
:104F0800072103F8011B9342FBD106F5AC7306F5A4
:104F1800B072082103F8011B9342FBD1B369002B3F
:104F2800099380F28C80009B1B1B032B40F34D825E
:104F3800049BDB1B012B00F3B6820E2D00F282824C
:104F480005F108026378934014F8022BAA40103543
:104F5800134348EA030875E24FF00009BA4B13F807
:104F68000930AB421AD9009B9C4214D33E9B13F0E4
:104F780002030BD00B2392E65F465446F6E7009BEC
:104F88009A45F9D254465F4614F8013BAB400835C0
:104F980048EA0308E2E714F8013BF7E7AA4B06EBF7
:104FA800890113F8092001239340AD1A013B03EA54
:104FB800080328FA02F8A54A52F8292009F101093C
:104FC8001344B9F1020FCB62C8D94FF000094FF46E
:104FD8009072002106F5DC502AF0E2FE736B4B4517
:104FE80010D81323736399E75F4654460FE0009B7C
:104FF8009A45F9D254465F4614F8013BAB40083550
:1050080048EA0308022D0BD8009B9C4205D33E9B1F
:1050180013F00203F2D00E2341E614F8013BEDE74A
:105028008B4B08F00702033D4FEAD80813F8093004
:1050380009F10109334403F5DC531A70CEE7402225
:10504800002111A82AF0ACFE099A4FF45A630021F6
:1050580053434FF4006203F5B070059330442AF0CF
:105068009FFE059B00214FF4906203F516603044C3
:105078002AF096FEB3690D9306EB8303D86A059B65
:105088004033F31819460A9300230893089B984263
:1050980031D1002301220DF1440E0DF1840C184684
:1050A800CDE921335EF8221001320B44102A08445E
:1050B8004FEA43034CF82230F4D1B3F5803F01D0D6
:1050C800012827D8059B4FF0FF32099903F5B073E3
:1050D800F3180F93002305934FF4DA6359430991AA
:1050E800089B05998B4217D10D9B022B40F0F3804A
:1050F8004FF00009D5E032AA11F8013B02EB830317
:1051080053F8842C013243F8842C089B0133BCE704
:105118005F465446232328E60A9B13F8011B8E4654
:105128000A9309B332AB0E9103EB810353F844CCD5
:105138000CF1010043F8440C00230CF001004FEA85
:105148005C0C40EA43030E9801380E90F5D10A2909
:1051580013D8059840EA412C01200FFA8CFC00FA7C
:1051680001F1B3F5806F03D3059B01330593B7E7CE
:105178000F9820F813C00B44F3E70999C3F3090CFF
:105188008C4406EB4C0CBCF9601119B91146ACF80B
:105198006021023A5B0A5B08BEF10B0F03F0010CB9
:1051A800A1EB0C0C6FEA0C0C07D1099B9C44059BE6
:1051B8000CF5966C26F81C30D6E709998C4406EB5A
:1051C8004C0CBCF9601941B9ACF86029A2F1020C89
:1051D80011460EF1FF3E6246DDE794460A46F7E7C0
:1051E8000E2D44D8009B1B1B012B7BDCC8F3090345
:1051F80003F5656336F91330002B0CDB5B1201D025
:105208009D4234D2009B9C4269D33E9B13F002031B
:1052180027D0102343E50A2DF4D90A2141F2502062
:105228000A46DB43013128FA02FC0CF0010C634406
:10523800034436F91330002B19DA02329542EFD2C3
:10524800E0E75F465446E0E7ACA8040804AB04086E
:1052580074AA0408009B9A45F3D254465F4614F892
:10526800013BAB4008350E2D48EA0308BED9C8F308
:10527800090303F5656336F91330002B3EDB5A1238
:10528800C3F308030F2B28FA02F8A5EB02050293D3
:1052980044DC06EB090242F62413029909F10109DC
:1052A800D154D6E90B3205929A184A4598D840F05D
:1052B8008A8006F524511A4606F140002431CDE9CA
:1052C80008132AF027FD059A06F55E60DDE9081344
:1052D80019442AF01FFDB369013BB3611EE614F8B7
:1052E800013BBEE705F108026378934014F8022BEE
:1052F800AA401035134348EA0308B8E70A2241F2E6
:10530800502128FA02F0DB43013200F00100034487
:105318000B4436F91330002BF3DBB3E7102B07D11E
:10532800B9F1000F04D111231FE55F465446FAE78F
:10533800BC4A134413F8103C9D42019319D2009BB8
:105348009C423BD33E9B13F002030BD01223A6E4EE
:105358005F465446F6E7009B9A45F9D254465F46A5
:1053680014F8013BAB40083548EA0308019BAB42FF
:10537800E5D8019B0122029906F524509A40ED1ABE
:10538800102900F1240002F1FF32484402EA080221
:1053980028FA03F8A44B0B4413F8103C1A440B46A4
:1053A80006BF06EB090142F623130021059208BF48
:1053B800C95C2AF0F5FC059A914472E714F8013BA0
:1053C800D0E75F4654461523CFE40E2D3AD8012B7B
:1053D8003FF7B6ADC8F30903B03336F91300002818
:1053E8000CDB431201D09D422CD2009B9C4242D33D
:1053F8003E9B13F002031FD0172350E40A2DF4D963
:105408000A210A46013128FA02F303F001031B1AA4
:1054180003F2AF4336F91300002813DA023295423B
:10542800EFD2E2E75F465446E2E7009B9A45F9D29D
:1054380054465F4614F8013BAB4008350E2D48EA48
:105448000308C7D9C8F30903B03336F91390B9F183
:10545800000F13DB4FEA6922C9F30809B9F1FF0FFE
:1054680028FA02F8A5EB02054CDC049B9F4215D2F2
:1054780007F8019B57E514F8013BDDE70A2228FAF3
:1054880002F3013203F00103A3EB090909F2AF4962
:1054980036F91990B9F1000FF1DBDFE71823BFE403
:1054A8005F465446E1E70E2D9FBF34F8023BAB4000
:1054B800103548EA0308C8F30903B03336F9132056
:1054C800002A3EDB511228FA01F86D1AD1059146DF
:1054D80018D40E2D9FBF34F8023BAB40103548EA74
:1054E8000308C8F30903B03336F91300002836DB84
:1054F8004112C30528FA01F8A5EB01053A703CD51D
:1055080001378146C9F30809B9F5807F3FF4B4AC87
:105518006FF4807C454BE14453F829300193444BA8
:1055280053F82990019B002B45D09D4239D2009B0E
:105538009C425CD33E9B13F002032BD01923FFF748
:10554800AEBB0A2128FA01F3013103F001039A1ACC
:1055580002F2AF4236F91220002AF3DBB3E70A2140
:1055680028FA01F3013103F001031B1A03F2AF43D8
:1055780036F913000028F3DBBBE778700237D2E472
:105588005F465446D6E7009B9A45F9D254465F4693
:1055980014F8013BAB40083548EA0308019BAB42CD
:1055A800C5D8019A01239340AD1A013B03EA0803C9
:1055B80028FA02F899440E2D49D8009B1B1B012B91
:1055C8006DDCC8F3090303F5F06336F9130000280E
:1055D80010DB431201D09D4239D2009B9C425BD321
:1055E8003E9B13F002032CD01A23FFF758BB14F884
:1055F800013BCFE70A2DF0D90A210A46013128FAE2
:1056080002F303F001031B1A03F67F3336F9130084
:1056180000281CDA02329542EFD2DEE75F46544694
:10562800DEE700BFB0A80408B4A8040888AA0408E4
:10563800F8A90408009B9A45F0D254465F4614F82E
:10564800013BAB4008350E2D48EA0308B9D9C8F329
:10565800090303F5F06336F9131000292BDB4A120E
:10566800C1F30801C14B28FA02F8AD1A53F82130EA
:105678000193BF4B53F821300293019B002B45D077
:105688009D4237D2009B9C424CD33E9B13F00203B1
:1056980029D01B23FFF703BB14F8013BD1E705F121
:1056A80008026378934014F8022BAA40103513437C
:1056B80048EA0308CBE70A2228FA02F3013203F08A
:1056C80001035B1A03F67F3336F913100029F3DB65
:1056D800C8E75F465446D8E7009B9A45F9D2544636
:1056E8005F4614F8013BAB40083548EA0308019BC4
:1056F800AB42C7D8019A01239340AD1A013B03EA94
:10570800080328FA02F8029A1A440292079BFB1A25
:105718000393DDE9023293420AD90C9B43B1252356
:10572800FFF723BB14F8013BDDE75F465446F6E775
:10573800DDE9022304999B1A069A1340079A134439
:105748009F422CBF09EB070209EB0302914236D3B3
:10575800033313F8032C4846A9F1030919463A7094
:10576800033313F8052CB9F1020F7A7013F8042CDF
:10577800BA703A4607F10307EBDCB9F1000F7FF77F
:10578800D2AB0B78B9F1020F3B7004BF4B787B703A
:105798001718FFF7C8BB3523FFF742BB5F465446CF
:1057A800049B9F42F7D2DDE902239B1A069A134015
:1057B800079AD35C07F8013B039B013303934B46DD
:1057C8004FF0FF39002B3FF4AEAB9944E8E75F4652
:1057D8005446FFF762BB009B9A45F8D254465F4691
:1057E80014F8013BAB40083548EA0308FFF74CBB07
:1057F80014F8013BF6E705F007034FF0000925F020
:10580800070528FA03F885B3072D1BD8009B9C428F
:1058180015D33E9B13F002030CD02923FFF73FBAA0
:105828005F465446F5E7009B9A45F9D254465F46D1
:1058380014F8013BAB40083548EA0308E4E714F8DC
:10584800013BF7E75FFA88F3083D4FEA1828326909
:1058580009F1010943EA0223B9F1030F3361D2D9EF
:10586800222300203360FFF75FB9009BA34211D8C1
:105878003E9B13F00203EAD02A23FFF710BA5F46D3
:105888005446F5E7009B9A45F9D254465F4614F80A
:10589800013BDCE714F8013BD9E75F465446DFE7F4
:1058A8005F465446FFF7C7B914F8082C14F8073CAC
:1058B800624414F806CC03EB020803EB42020CEB3B
:1058C8000803724414F805CC1A449C4414F8043CA8
:1058D80062449C4414F8033C6244634414F802CCC8
:1058E8001A44634414F801CC1A449C44234602EB3E
:1058F8000C0E03F108040733A3EB0B039942D3D82A
:1059080021F0070321F007045B441A46A4EB0309BE
:1059180002EB0908414512D80A1B7F1A8C4288BF3E
:10592800002241F2B05103EB020BBCFBF5F305FB7F
:1059380013CCBEFBF5F305FB13EEFFF71AB912F80B
:10594800018BC444E644E3E70CEB0E42F261002805
:105958007FF486A83E9BDB077FF582A833699A42CD
:1059680018BF6FF00100FFF77BB800BF78A90408E3
:10597800F8A80408024B5A69026058610020704771
:10598800A42F0024024B5A6912685A61704700BF5D
:10599800A42F0024024B9A69C0E90021986170473E
:1059A800A42F0024044A93691968916110B15A68B8
:1059B80018461047704700BFA42F002438B5044686
:1059C800044DAB690BB1A34200D338BD0120FFF7EA
:1059D800E9FFF6E7A42F0024C460056146618761EA
:1059E800C0F81C80C0F82090C0F824A0C0F828B0E7
:1059F800C0F82CD080ED0C8B80ED0E9B80ED10ABA9
:105A0800C0F808E0FFF7B6BF124D6C6908B50CB9CD
:105A180039F0FAFD60602046FFF7D0FF23686B611C
:105A28002046C468056946698769D0F81C80D0F8A3
:105A38002090D0F824A0D0F828B0D0F82CD090ED41
:105A48000C8B90ED0E9B90ED10ABD0F808E0012088
:105A5800704700BFA42F002410B50021044600F0B1
:105A6800E5FA18B914B120460DF00EFC10BD00215E
:105A780000F0DCBA10B50121044600F0D7FA18B9D5
:105A880014B120460DF000FC10BDFFF7E5BF10B5BE
:105A980001220C4600F0E2FB18B914B120460DF0C3
:105AA800F3FB10BD00F0DABB00F09ABB2DE9F04122
:105AB80000252A4C0326D4F8A87200210131431886
:105AC8009A0803F00303BA5C5B0042FA03F303F09D
