:020000040800F2
:10000000F8FF0724050500082BAB030819AB03080C
:100010002DAB030839AB030845AB03080000000013
:1000200000000000000000000000000051AB0308C9
:1000300053AB0308000000000DBB030845BB0308D9
:100040009902000831AC030843AC030849AC03082B
:10005000E12E040899020008C5AB0308CBAB0308E6
:10006000D1AB0308D7AB0308DDAB030891DF03086E
:10007000A1DF0308B1DF0308C1DF0308D1DF0308F4
:10008000E1DF0308F1DF030899020008FD08040816
:100090000D0904080509040815090408E3AB030861
:1000A0005DAC030863AC030869AC03086FAC0308DC
:1000B00073AC030879AC03087FAC0308990200080D
:1000C0009902000815AD03081BAD030885F003086D
:1000D00091F00308DFAC0308E5AC0308EBAC0308C0
:1000E00007AC030837AC030800000000A9AC030804
:1000F000AFAC0308C7AC0308C1AC030801E00308B8
:10010000990200085537040885AC030899020008D5
:10011000F1AC0308F7AC03089DAC0308A3AC0308DB
:1001200011E0030821E0030831E0030841E003087F
:1001300051E00308990200083DAC03089902000849
:1001400000000000000000000000000000000000AF
:1001500061E0030871E0030881E00308FDAC0308D7
:100160009902000899020008990200089902000803
:100170009902000899020008990200080000000096
:10018000990200089902000803AD030809AD0308AD
:100190009DF00308990200089902000899020008DE
:1001A00099020008990200089902000899020008C3
:1001B00099020008990200089902000821AD03087D
:1001C00027AD030899020008990200089902000867
:1001D00061AB030855AB03089902000899020008B7
:1001E0009902000899020008990200089902000883
:1001F0009902000899020008990200089902000873
:100200009902000899020008990200089902000862
:10021000CDAC0308D3AC0308D9AC0308990200089D
:1002200099020008990200089902000800000000E5
:1002300099020008990200080000000099020008D5
:100240009902000899020008990200089902000822
:100250009902000899020008990200089902000812
:100260009902000899020008990200089902000802
:1002700099020008990200080FAD03080000000071
:100280009902000899020008990200080000000085
:080290000000000099020008C3
:10029800FEE70000254AD2F8883043F47003C2F81C
:1002A8008830234A136803F00F03062B05D8136818
:1002B80023F00F0343F0070313601E4B1A6842F044
:1002C80001021A6000221A611B4A19680A4018497B
:1002D8001A600A68120705D50A6822F00F0242F070
:1002E80007020A60002215499A61DA611A62996266
:1002F8001349D962134919635A639963DA63196414
:100308005A64196821F4802119601A660E4B1B681B
:100318001B0C1B04B3F1005F03D20C4B0122C3F882
:1003280008210B4B43F2D2021A60704700ED00E03F
:1003380000200052004402587FEDF6EA0002020253
:100348000000FF01800201010010005C00800051E4
:1003580000400052F0B5D1B020220021614C05A820
:100368002AF0BAFC4C2200210DA82AF0B5FCC022C4
:10037800002120A82AF0B0FCE36823F00403E3601E
:1003880063689804FCD52CF071FA42F20203984293
:100398004FD9554BD3F8F42042F00202C3F8F420A9
:1003A800D3F8F43003F002030193019B0023029376
:1003B800A36943F44043A361A36903F44043029350
:1003C8004A4BDA6A42F00102DA62DB6A03F001039F
:1003D8000293029B434A93699904FCD53F21012269
:1003E8004FF4803305260591A02102244FF480673D
:1003F8000DA81A94CDE90D23CDE918610022042136
:1004080040231F920A93CDE91D12CDE91B14032145
:10041800CDE91023CDE906120822CDE91644CDE92D
:100428000823CDE90B7330F0D1FDB8B1304839F06D
:10043800DBFF002303932D4BDA6A22F00102DA6214
:10044800DB6A03F001030393A36943F44043A36108
:10045800A36903F440430393039BBBE700234FF4D2
:100468008022302531902A96CDE920234FF40013BD
:10047800CDE92F7020A84293CDE92B54CDE92D6406
:1004880031F052FB08B11B48D1E71922199B1A9980
:1004980005A85343189AB3FBF2F3B3FBF5F205FB37
:1004A8001232003AB3FBF1F118BF01223BF066FCAF
:1004B80008B11148BBE70C4B1A6842F080021A6079
:1004C800D3F8F42042F00202C3F8F420D3F8F43051
:1004D80003F002030493049B2CF0D6F930F06EFD70
:1004E80051B0F0BD004802580044025800040058BA
:1004F800B04B0408C24B0408DC4B04080446DFF880
:100508002CD00B490B4A0C4B03E051F8040B42F872
:10051800040B9A42F9D300200849094A01E041F83E
:10052800040B9142FBD320463AF0B4B8F8FF0724F5
:10053800CCB70508000000243C0000243C0000243F
:10054800D437002440F8044B40F8045B40F8046BAF
:1005580040F8047B40F8048B40F8049B40F804AB57
:1005680040F804BB40F804CB40F804DB6846704709
:10057800024B5A6902605861002070473C00002411
:10058800024B5A6912685A61704700BF3C00002448
:10059800024B9A69C0E90021986170473C00002429
:1005A800044A93691968916110B15A68184610474E
:1005B800704700BF3C00002438B50446044DAB69C1
:1005C8000BB1A34200D338BD0120FFF7E9FFF6E7DE
:1005D8003C000024C460056146618761C0F81C8046
:1005E800C0F82090C0F824A0C0F828B0C0F82CD0DB
:1005F80080ED0C8B80ED0E9B80ED10ABC0F808E011
:10060800FFF7B6BF124D6C6908B50CB93AF02EF871
:1006180060602046FFF7D0FF23686B612046C468FE
:10062800056946698769D0F81C80D0F82090D0F811
:1006380024A0D0F828B0D0F82CD090ED0C8B90EDF9
:100648000E9B90ED10ABD0F808E00120704700BF7A
:100658003C00002410B50021044600F0C7FA18B980
:1006680014B120460DF072FD10BD002100F0BEBA95
:1006780010B50121044600F0B9FA18B914B12046A2
:100688000DF064FD10BDFFF7E5BF10B501220C4663
:1006980000F0D6FB18B914B120460DF057FD10BD77
:1006A80000F0CEBB00F08EBB2DE9F0414FF0030CFB
:1006B80000252A4C8646D4F8A802002101310EEB09
:1006C80001039A0803F00303825C5B0042FA03F318
:1006D80003F00303022BF1D0D4F8B402090100EBB4
:1006E8000E104FEA910E61B300EB8E0E03681A07E5
:1006F80024D1D4F8B422991A9A424FEA9116C1F338
:1007080001124FEA111119D8D4F8B87252009F4259
:1007180014D9D4F8A8720CFA02F8BB5D43FA02F2B5
:1007280043EA080302F00302012A07D13F2DBB5513
:1007380005F5B2730CD8013524F813100430704550
:10074800D4D145B1013D05F5B27334F813E0B2E7F1
:10075800C4F8C422F2E7BDE8F08100BF3C000024E1
:1007680030B51C4C0122D4E9AC53C01AC109C0F3FE
:1007780002134FEA101C9A406B5C4FEA9C0E23EA66
:1007880002036B548309D4F8BC220325B2EB901FF3
:10079800D4F8A8020CF0030288BFC4F8BC32C15CCC
:1007A80052000CF1010C05FA02F30CF0030221EAE5
:1007B8000301530000F80E104FEA9C0ED4F8A8026B
:1007C80010F80E1041FA03F303F00303022BE7D0ED
:1007D80030BD00BF3C00002421F00F01174A38B596
:1007E8000B1A174C0546013BC4F8B812C4F8A80206
:1007F800DB00A2FB03235B0A9A00C4F8AC32A1EB2E
:100808008311013307321D44C4F8B41203EBD2023A
:100818000021C4F8B0522AF05FFA002301214FF0FA
:10082800FF32C4F8BC32C4F8C0322381A4F848139C
:10083800C4F84C33C4F8502338BD00BFF32C23FA56
:100848003C000024024A138901331381704700BF1A
:100858003C000024024A1389013B1381704700BF02
:100868003C000024024B1889003818BF012070474B
:100878003C000024F8B51B4D00222B8905F1080423
:1008880005F5FE76C5F84C230133C5F8C4222B8143
:1008980054F8043F1A0719D1D5F8B422981A93428C
:1008A8004FEA9011C0F301124FEA10100ED3D5F899
:1008B800B8725200BB4209D2D5F8A87217F801C025
:1008C8004CFA02F303F00303012B02D0A642DFD156
:1008D800F8BD032393404CEA030C07F801C0FFF767
:1008E800E3FEF3E73C00002471B3F8B50F46051F9B
:1008F8000024164E55F8043F01341A0719D1D6F8CA
:10090800B422981A9A424FEA901CC0F301124FEA97
:1009180010100ED8D6F8B8125200994209D9D6F854
:10092800A8E21EF80C1041FA02F303F00303012BAE
:1009380002D0A742DED1F8BD0323934019430EF835
:100948000C10FFF7B1FEF4E7704700BF3C0000242D
:100958002DE9F04F5D4C83B0D4F8C432002B00F081
:10096800AB80D4F8AC0200268000C4F8C46200282A
:1009780000F0A9800027BB0807F00302D4F8A812EA
:1009880005465200CB5C134103F00303032B40D010
:1009980001378742EFD3D4F8C432002BE5D1D4F81D
:1009A800C032AB4280F08C805D1C4FF0000BDC46FF
:1009B8005F4604E0012B47D00137AF421ED0D4F880
:1009C800A8024FEA970807F0030610F8082000EB82
:1009D8009701760042FA06F303F00303022B27D0AF
:1009E800032BE7D10223B34022EA030200F80820D0
:1009F800BB4601374FF0000CAF42E0D123890022FB
:100A0800C4F8C0B2013BC4F8BC22238103B0BDE8DE
:100A1800F08F38460137FFF747FED4F8AC02800064
:100A280087420546A7D3D4F8C432002B9DD1B6E738
:100A3800BCF1000FDCD003234FF0010C03FA06F6DB
:100A480022EA06060E70B7E7D4F8B0024FEAD70AD2
:100A580007F0070910F80A3000EBD70C43FA09F041
:100A6800C007E8D5D4F8B4023901415800EB0710A3
:100A7800A1B16A464FF485610CF014FD009B3BB1AF
:100A88000DF0DAFDDDE900010DF0A6FD0DF0EAFD3F
:100A9800D4F8B03203EB0A0C13F80A30012202FA38
:100AA80009F923EA09038CF80030D4F8A83203EBDB
:100AB800080113F80820BEE7D4F8AC52AD006EE781
:100AC800002D7FF472AF4FF0000B97E73C00002435
:100AD800044B00211A89C3F8C41201321A81FFF7A6
:100AE80037BF00BF3C0000243F4BD3E9AD122DE9CE
:100AF800F047521A0024D3E9AA61A64602604FEAD9
:100B0800810C2746A0462246A146214644608461BE
:100B1800C0E90244C0E9044416F8093049000B4111
:100B280003F00303012B47D0022B40D093B30132CB
:100B380094450CBF012500250FD04FEA920902F019
:100B4800030116F809304FEA410A43FA0AF303F0A1
:100B58000303012B01D9002DDED0B8F1010F35D0E8
:100B6800B8F1020F02D14169013141618169414502
:100B780038BFC0F81880012B05D025B94FEA920973
:100B880002F00301C8E7C3689F4288BFC7601DBB66
:100B98002F46F3E701320EF1010E013798469445CE
:100BA800C0F808E00CBF01250025C6D1DEE70134F6
:100BB80008F101084460BAE7013201349445446001
:100BC8000CBF0125002501D09846B6E701694FF012
:100BD800010801310161C9E724014FEA0E13C0E998
:100BE8000143BDE8F08700BF3C0000242DE9F8432D
:100BF80000F10F06360948D0714C2389002B44D1E7
:100C0800B4F848330D46002B0CBF4FF0010E4FF0DF
:100C1800000E50D1D4F8BC02D4F8AC72874231D956
:100C2800D4F8A8C20138013F00216044CCF1010882
:100C3800674418E04A1C964257D913F00C0F2DD17F
:100C48008A1C964240F2AC8013F0300F2CD101324E
:100C5800964240F2AA803F2B10D8511C8E4240F297
:100C6800A98087420ED008EB000910F8013F9A07C7
:100C7800E0D013F00C0F0CD10122E2E787424FF0CD
:100C88000001F0D1BEF1000F24D000231846BDE8C2
:100C9800F88313F0300F0CD10122D9E713F0300F8D
:100CA8000CBF01220022D6E73F2B8CBF0021012177
:100CB800D7E70022CFE7D4E9D3239A42AAD340F05A
:100CC80075FED4F8BC02D4F8AC72B842DDD24FF04D
:100CD800010EA5E740F06AFED4F8BC02D4F8AC7265
:100CE8004FF0010E87429BD8CFE74FEA8909A9EB5D
:100CF8000201012A01F1010704D109F101039B084E
:100D0800C4F8BC32D4F8C03207F0030EB808023178
:100D18004B454FEA4E0E38BF4B468945C4F8C032A2
:100D28004FF0010303FA0EF31CF800E043EA0E0348
:100D38000CF8003012D34FF0020E01F003038808BC
:100D4800D4F8A8C201315B001CF8008089450EFA6E
:100D580003F343EA08030CF80030EED2D4F84C331E
:100D68001201D4F8B482002133443E01C4F84C3354
:100D780008EB0713184629F0AFFFEA07034685D5A5
:100D88000022D4F8B002F90807F0070748F806204F
:100D98000122445CBA40224342541846BDE8F88315
:100DA8004FEA890909F10109A1E74FEA890909F11F
:100DB80002099CE74FEA89090A4609F1030996E7FF
:100DC8003C000024034B1A8912B908B1FFF7C8BCCC
:100DD800704700BF3C000024034610F00F001AD1F2
:100DE800164AD2F8B412994217D810B4D2F8B842B9
:100DF8009C420DD95B1AD2F8A842C3F301119A0993
:100E08001B09A25C49000A4102F00302012A05D02D
:100E18005DF8044B704700207047704701301A187E
:100E2800910802F00302615C520041FA02F202F0FA
:100E38000302022AF2D00001EAE700BF3C000024C6
:100E48002DE9F84F0F460646002800F0CB80002910
:100E580000F08A80704D2C89002C40F08A80D5F8EB
:100E6800B4020F31D5F8ACC2301A09094FEA8C0A1E
:100E7800030903F1010EBEEB8C0F80F0B980A44684
:100E8800D5F8A8924FF001084FEA9E040EF0030B24
:100E980019F804404FEA4B0B44FA0BF404F003042E
:100EA800022C6AD02CB90CF1010C08EB0C048C4212
:100EB80065D3884554D067D8C4448C451BD2C00933
:100EC800D5F8B012095C002A53D003F0070338465E
:100ED800194101F00101FFF789FE0446002848D0B6
:100EE8004FEA0812314629F0B3FE2B89CBBB3046B6
:100EF800FFF736FC35E05C1843449C4220D903F0E8
:100F0800030298084FF0020C0133520019F80070E0
:100F18009C420CFA02F242EA070209F800200FD9B3
:100F280003F003029808D5F8A8720133520017F8A5
:100F380000E09C420CFA02F242EA0E023A54EFD167
:100F4800D5F8C032A1EB080206EB081000219C423C
:100F58004FEA021238BF1C46C5F8C04229F0BCFE51
:100F680034462046BDE8F88F2B4B1B890BB9FFF799
:100F7800F7FB00242046BDE8F88F08F101080EF1C0
:100F8800010EF24580D194E75C184FF0030CA8EBF2
:100F9800010104EA0C07A008012904F101044FEA41
:100FA800470719F800E00CFA07F72EEA070709F8CF
:100FB800007010D008EB030E04F00302A708D5F860
:100FC800A83201345200D95D74450CFA02F221EAC4
:100FD8000202DA55F0D1D5F8BC328342C0D9C5F83F
:100FE800BC02BDE701463846BDE8F84FFFF7FEBD35
:100FF8000129B5D011B14FF0010860E703F00303F0
:101008008009D5F8A81203225B009A400B5C23EAFA
:1010180002030B54DFE700BF3C00002410B58AB080
:10102800044603A8FFF760FD039A0949DDE9043087
:101038000090204600F0A6FF2046069C079ADDE9AE
:101048000831CDE90014034900F09CFF0AB010BD37
:10105800F04B0408144C04082DE9F84F564E074687
:101068005649D6F8B42200F08DFFD6F8AC128900A4
:1010780000F08A800024DFF87481DFF874A1DFF8BB
:1010880074910EE0012B59D02E224D49384600F0BC
:1010980079FF0134D6F8AC32B4EB830F4FEA830101
:1010A80072D2A20611D004F003054FEA940B6D002A
:1010B800D6F8A83213F80B302B4103F00303022BA8
:1010C8003AD0032BDED16D22DFE7A1426AD9D6F8E8
:1010D800A8024FEA940B04F0030510F80B306D00DA
:1010E8002B419B0722D1234605E010F80CC04CFA8F
:1010F80002F2920708D1013303F003028B424FEA50
:10110800930C4FEA4202F0D11A1B7F2A0ED992099A
:101118005146384623F03F0400F034FFD6F8AC328D
:10112800B4EB830F30D24FEA940B002522014146DD
:10113800384600F027FFBBE73D22A6E7D6F8B422E1
:101148002301D2584A451DD01E4B9A4222D01E4B2D
:101158009A4223D01D4B9A421ED01D4B9A421BD057
:101168001C4B9A421CD01C4B9A4219D01B4B9A42DA
:1011780020D01B4B9A421BD01A4B9A4214BF6822AC
:101188004D2282E7542280E738461749BDE8F84FD8
:1011980000F065BB4C2278E7532276E7442274E7D7
:1011A800412272E704F003054FEA940B6D00BDE796
:1011B80042226AE7462268E73C0000245C4C0408A7
:1011C8009C4C040804CD0408E0C3040818D804089B
:1011D80068D8040874C0040800C0040898C8040843
:1011E80078C9040898CE0408584C0408944C04089C
:1011F800784C0408F0D904080346064A506A1A686D
:101208004168C1F31E018A4202D3521A1A6070471C
:101218000068F5E73C000024014441F20553884288
:1012280004D398B2012838BF0120704703EB431359
:1012380010F8012B5340F2E7034B044A5A6200228C
:10124800C3F80022704700BF3C000024A81005081E
:101258002DE9F04781460F46002942D0FFF7DCFF11
:10126800214B82465C6A0CB9204636E094F9073077
:101278000025E668002B06F1FF3616DB013604F17F
:101288001808B54215D32468EDE706EB05083A4679
:1012980048464FEA580808F1060354F8231029F085
:1012A8007BFD0028CCBF45464646731B012BECD876
:1012B800E4E7236933F815309A4510D163695B5D1B
:1012C8009F420CD13A46494658F8250029F02CFD92
:1012D80028B96068C0F31E002844BDE8F0870135CE
:1012E800CFE70120F9E700BF3C0000242DE9F843CF
:1012F80080460E46FFF7ACFF0246002840F0928079
:10130800FF2E03D949494A480CF04EF9494C751C3F
:10131800D4F8000290B1D4E981132B448B4229D927
:101328002944FFF7BDF90746D8B90246D4F8081290
:10133800D4F80002FFF7B4F9C4F80072802D2F46E4
:1013480038BF80273846FFF790F9C4F80002D0BBB1
:101358002846FFF78AF9C4F8000298BB28460CF023
:10136800F5FED4F804322B44C4F80432D4F8003221
:10137800002BE3D0D4F808324146D4F800724FF07D
:10138800000832461F442B443846C4F8083229F076
:101398005FFC3146384607F80680FFF73DFF636A71
:1013A8008146D3E90253AB422AD36D000A2D38BFD8
:1013B8000A25C5EBC5001830FFF757F948B9C4F836
:1013C8000002CBE72F460023C4F80472C4F80832A1
:1013D800D0E700F11802616A02EB85020160026140
:1013E80002EB450242614A68C968C2F31E02C0F8AE
:1013F8000C800A44416862F31E01C0E9011560626D
:10140800626AD2E90331526921F81390991DD654C2
:10141800626A42F82170D1680131D1605268C2F322
:101428001E021A441046BDE8F88300BF9F4C04080A
:101438008CC504083C00002410B5044629F086FC3D
:1014480001462046BDE81040FFF750BF07B50190A0
:1014580001A8FFF7D1FE019A036933F8120003B01F
:101468005DF804FB07B5019001A8FFF7C5FE019BD5
:101478004269D05C03B05DF804FB07B5019001A890
:10148800FFF7BAFE019B063350F8230003B05DF85E
:1014980004FB13B5019001A80C46FFF7ADFE019BB4
:1014A8004269D25C063350F82300226002B010BDB6
:1014B8002DE9F8431D460023074688460360164673
:1014C8000B6013602B60154BDFF854905C6A0CB10D
:1014D8004C4505D12B68326813442B60BDE8F8836E
:1014E8003B6801333B60E268D8F800301344626916
:1014F800C8F80030E368D1188A4207D32046FFF7BE
:101508006BFC2B68246803442B60E0E7336812F80F
:10151800010B013303443360EEE700BF3C000024B5
:10152800A81005082DE9F8430D4B0E4F5C6ADFF84B
:101538003880DFF838900CB1BC4201D1BDE8F8839F
:1015480004F11805E36805EB8306B54201D3246866
:10155800F1E755F8042B4146484600F013FDF4E73F
:101568003C000024A8100508A44C0408A0AA0408FC
:1015780030B50023202511F8012F0AB9027030BDBB
:10158800120600F101041FD513B120230370204671
:101598000B78124A03F07F0363B9013A12F8013F4E
:1015A8000446013013F0800F0BD003F07F03237043
:1015B8000123E0E712F9014B002CFBDA013BDBB217
:1015C800EAE700F8013CE9E7012B04BF0570204673
:1015D8000B7800F8013B0223CDE700BFAB4C0408B1
:1015E80038B54368054619440368994210D9037B06
:1015F8001BB1002107480BF0D7FF01F110048068E8
:1016080024F0070408342146FFF73FF82C60A8604F
:1016180038BD00BF8CC5040870B504460E46114697
:101628001546FFF7DDFF31462A46D4E90130184454
:1016380029F03EFB63682B44636070BD70B5466853
:101648000446B14228BF31460D460121FFF7C8FFC5
:10165800A368681C721B5919184429F029FB636890
:10166800A06801332844636070BD012938B538BFCC
:10167800012104460025084621606560FEF7EAFF5F
:101688002573A06038BD38B505460C460131FFF713
:10169800ECFF6C6038BD00230160C0E90132012312
:1016A8000373704738B514460546FFF7DEFF024B53
:1016B8002560636038BD00BF21160008037B10B5A4
:1016C800044613B98068FEF7EDFF0023A36010BD40
:1016D80038B505461020FEF7BDFF04462946FFF73A
:1016E800C4FF204638BD10B5044648B1037B13B982
:1016F8008068FEF7D7FF2046BDE81040FEF7D2BF4E
:1017080010BD000038B5037B04460D461BB100210F
:1017180006480BF049FF016880682944FEF7B5FFC9
:101728002368A0601D441844256038BD8CC5040892
:1017380038B504460D46FFF753FFD4E901301D4480
:101748001844656038BDD0E9002310B59A420446B4
:1017580002D10121FFF7D6FF0021D4E90132D1548B
:10176800A06810BD10B50C460121FFF7E1FF047019
:1017780010BD7F29F8B50C46CEB204D80121FFF779
:10178800D7FF0670F8BD06F03F06B1F5006FC1F34C
:10179800871546F0800607D265F03F050221FFF75E
:1017A800C7FF46700570EDE705F03F05B1F5803FCE
:1017B800C1F3073745F0800508D267F01F070321FA
:1017C800FFF7B6FF457007708670DBE7A40C07F0DB
:1017D8003F07042164F00F0467F07F07FFF7A8FFB5
:1017E800857004704770C670CCE738B505460C465E
:1017F800084629F0ABFA214602462846BDE838409B
:10180800FFF70ABF10B51446FFF718FF047010BDA4
:1018180010B51446FFF712FF047010BD43688B42E1
:101828002CBF591A00214160704738B50446154647
:10183800084662688A4203D929448A4201D860600E
:1018480038BDA368521A1844194429F031FA63685C
:101858005B1B6360F4E7084611462AF0F7B970B5D8
:10186800054608460E4629F071FA044620B102469C
:101878006B68314628689847204670BD2DE9F74FB8
:101888008A469DF8301091460D9A11F0DF0F0646F2
:10189800A2EB09022ED030290CA92A4F1ABF4FF00B
:1018A80001080F464FF0100813F0800126D002EB14
:1018B800D275012A4FEA6504A2EB65052CDC0024E9
:1018C800B9F1000F05D04C4473684A465146306858
:1018D8009847002D1ADD2C44A845C146736839463F
:1018E800A8BFA9463068A5EB09054A469847002DC8
:1018F800F2DC0BE0144F4FF01008D5E713F00104A9
:101908001BD1002A06DCB9F1000F19D1204603B01B
:10191800BDE8F08F25461446A346D845424673686D
:101928003946A8BF5A46306801929847019AABEBEE
:10193800020BBBF1000FF0DCC2E715460C46BFE70F
:101948002546C0E7A8AA0408B9AA04082DE9F04367
:10195800064689B00020119D9DF84880139F8DF898
:101968000F000AB381421ADA2D2249428DF80F205E
:10197800109A08AC0DF11009A2F10A008E46B1FBCD
:10198800F3FC03FB1C126146092A8CBF1218303283
:1019980004F8012D4C450ED07345EFD90BE0A8078C
:1019A80027D52B228DF80F200029E1D130230DF106
:1019B8001F048DF81F3015F040099DF80F301CD01A
:1019C80023B301222B460DF10F013046013FCDE92B
:1019D8000082FFF753FF814608AA2B46214630466E
:1019E800121BCDE90087FFF749FF484409B0BDE85D
:1019F800F0836A07D8D52022D4E7002BECD004AABC
:101A08009442E9D904F8013C013CE5E79946E3E74B
:101A18002DE9F04F904693B0CA0781460C461C9DAD
:101A28009DF874A00593DDE91E670BD48B0703D1DD
:101A38000968824B994205D020460DF029FC4400E4
:101A480044F0010415F0810306D1BAF1300F03D137
:101A5800BE42B8BF3E461F4620460DF1280B10F087
:101A6800B2FE00281CDBA80718D52B238DF82830D8
:101A78000DF12903EA069DF814101FD5B8F1020FDD
:101A880010D14FF0300C184600F802CB01F1010CD0
:101A980083F801C0034611E02023E7E76907FBD478
:101AA8005B46E7E7B8F1080F3ED130201870A8056B
:101AB80049BF01F10E00013358700233002015F0C0
:101AC800200F0EAA1870A3EB0B030B924FF0100215
:101AD80005930CBF03462C23012F8DF82700C8BFA0
:101AE80045F04005CDE90C2015F04002CDE9021380
:101AF800079232D023460DAA0CA9CDE900800BA885
:101B080010F028FD037880462D2B18D0012F40F3C4
:101B180091800D9C9DF82730BC42B8BF3C4603B16C
:101B28000134059B1C4428E0B8F1100FC6D14FF0D2
:101B3800300C184600F802CB01F1170CA8E70D9CF1
:101B4800012F00F101088DF8273004F1FF340D94BE
:101B580070DDBC42B8BF3C46E2E70AAB0DAA0CA94F
:101B68000BA8CDE90083234610F0F4FC012F804632
:101B78005CDD0D9CBC42B8BF3C4625F00103A64283
:101B8800069350DD15F0010AA6EB04044CD120237E
:101B9800019452462A490093484653465446FFF753
:101BA8006DFE0546079B4FF0300ADBB19DF82730E4
:101BB80053B1002301220DF127014846013ECDE92A
:101BC8000032FFF75BFE0544059B5BB10023012251
:101BD80059464846CDE90032059AFFF74FFE059B66
:101BE8000544F61A012FC8BF3E46069B41460D9A8A
:101BF8004846CDE900A6FFF741FE05444CB1202335
:101C08000F4948460194009300231A46FFF736FE11
:101C180005440B980EAB984201D0FEF743FD2846C9
:101C280013B0BDE8F08F00240025BBE7079C06959C
:101C38002546DAE7002406952546B7E7B4CB04081D
:101C4800174305082DE9F043164698468BB007461A
:101C5800B2070A4602A84FF0200154BFC6F380031A
:101C68002B23DDF8489058BF5B010093139B0AF0C3
:101C780017FBF305044610D5431C1F2B0DD800F1A4
:101C8800280200210DEB0204252204F8202C03F180
:101C980028021C466A4402F8201C16F040051DD094
:101CA8009DF808302F2B4FF0000319D8012202A904
:101CB800384609F1FF39013CCDE90032FFF7DEFD76
:101CC8000DF109010546334622463846CDE900891B
:101CD800FFF7D4FD28440BB0BDE8F08302A9F2E772
:101CE80002A91D46EFE700002DE9F04F074689B02D
:101CF800144600254FF00A080B461E4613F8012B20
:101D080082BBB14231D30B78002B00F03281013114
:101D180020234FF0000A084610F8012B32B12B2A75
:101D280038D02BD8202A38D0212A39D04FF00009B2
:101D38000E4611F8012BA2F13000092833D92E2ABA
:101D480057D172782A2A33D000220E4611F8010B97
:101D5800A0F1300CBCF1090F2DD808FB020BABF138
:101D68003002F2E7252AC8D1CBE7A6EB01097B6848
:101D780038684A464D4498473146C4E72D2A05D06D
:101D8800302AD3D14AF0400A134601E04AF0010A4A
:101D98000146C0E74AF0020AFAE74AF0040AF7E700
:101DA8004AF0080AF4E708FB0922A2F13009BFE764
:101DB800023654F8042B22EAE27B32786C2A08BFF8
:101DC80001363178002900F0D480782960D8572965
:101DD80012D847295AD844295AD90734524638467E
:101DE80024F00704CDE9009BB4EC020BFFF72AFFAF
:101DF80060E04FF0FF3BE0E7A1F15802202A47D806
:101E080001A050F822F000BF4B1F0008991E0008DF
:101E1800991E0008991E0008991E0008991E0008BE
:101E2800991E0008991E0008991E0008991E0008AE
:101E3800A71E0008C91E00082F1F0008E31D000880
:101E4800E31D0008E31D0008991E0008991E0008FC
:101E5800991E0008991E0008991E0008991E00087E
:101E6800991E0008991E00086B1F0008DD1E000857
:101E7800991E0008071F0008991E00084B1F00083C
:101E8800991E0008991E00084B1F0008502968D0A9
:101E98007B68012231463868013598470BE054F8D1
:101EA800042BCDE9003953463AB104223349384668
:101EB800FFF7E4FC0544711C1EE705223049F6E7EC
:101EC80054F8042B07A98DF81C200122CDE900390C
:101ED8005346ECE707A954F8040B0493FFF7D9FA23
:101EE800BBF1FF3F0146049B04D0079A934538BFD6
:101EF800CDF81CB0079ACDE900395346D7E754F816
:101F0800041B05930846049128F020FFBBF1FF3F0E
:101F18000246DDE9041302D0584528BF5A46CDE9E8
:101F280000395346C3E7CDE9023961230122CDF8D0
:101F380004A000930A2354F8041B3846FFF706FD53
:101F4800B8E74A1C21F00F01CDF804A002F0060200
:101F58000F39CDE90239C9B2C2F11003009100224C
:101F6800E9E7CDE902396123CDF804A000931023F5
:101F7800F5E7284609B0BDE8F08F00BF94AA040829
:101F880099AA04080EB403B503AA52F8041B0192D7
:101F9800FFF7AAFE02B05DF804EB03B070470346F2
:101FA800007893F90020002A0ADA00F07F00402226
:101FB800104206D113F8012F02F0C001802904D085
:101FC800704720EA02005208F2E702F03F0242EAB4
:101FD8008010EFE7431C18460133027802F0C00274
:101FE800802AF8D0704703460020994200D87047ED
:101FF80011F8012D02F0C002802A18BF0130F4E761
:1020080003460144002099421A4600D870471278C6
:10201800013302F0C002802A18BF0130F3E7000044
:102028007F289DBF024B185CC0F34000002070471A
:10203800CAAA04087F289DBF024B185CC0F3C000E1
:1020480000207047CAAA04087F289DBF024B185C6D
:10205800C0F3800000207047CAAA04087F289DBFEB
:10206800024B185CC0F3801000207047CAAA04080D
:102078007F2809D8064B1B5C13F00C0F06D1A0F182
:102088005F0358425841704700207047012070474D
:10209800CAAA04087F289DBF024B185CC0F3001031
:1020A80000207047CAAA04087F289DBF024B185C0D
:1020B800C0F3401000207047CAAA040808B50246B9
:1020C800FFF7E8FF00B12032104608BD08B5024608
:1020D800FFF7EAFF00B1203A104608BD303809285A
:1020E80084BF20F0200007387047024601440020D2
:1020F80010B5E524914203D8B0FA80F0400910BD2C
:1021080012F8013B60B103F0C003802B14D10138F1
:10211800C0B2EFE71B060FD49142EDD912F8013B8C
:10212800BF2BF7D9F72B07D8DB0803F0060344FACF
:1021380003F303F00300DDE70020E0E70239814202
:102148000B4603D31A880239002AF8D00233181A2A
:1021580040107047B2EB131FF0B504464FEA131551
:102168001BD9501B01EB450103F00F03254606461A
:10217800012E0F4631F8022B07D1DA4004EB400458
:102188002A8034F8023C33B1F0BD3A68013EDA40A7
:1021980025F8022BECE70138F6E70020F4E7F0B564
:1021A800059F0024D21B2646A74210D100EB470505
:1021B800002301EB47019A4214D105EB42031EB1FB
:1021C8000121023325F81210181A4010F0BD31F819
:1021D800145033F814C06544354420F814502E0CBC
:1021E8000134E1E731F81340344425F81340260C54
:1021F8000133E0E7F0B40E46002504992C46521A44
:10220800A9420BD100EB4105002306EB41069A4297
:102218000FD105EB4201F0BCFFF790BF36F81570FF
:102228003C4433F81570E41B20F81540241401359C
:10223800E6E736F813100C4425F81340241401334C
:10224800E5E72DE9F043079C0239DDF828E015465B
:1022580084464FF6FF78A4EB0209DDE9087655B904
:1022680000EB42011FB10123023120F81230BDE812
:10227800F043FFF763BF31F8024F013D4444264461
:1022880005EB0904AC4296BF33F8024B4FF6FF74D6
:102298004444744486EA040E360C17FA8EF74FEA63
:1022A800144E2CF8027B3F0CD9E7022938B538BF09
:1022B8000221044680680D4618B12368B1EB930FDC
:1022C80007D96900FEF7E1F92368A06065F39F0369
:1022D800236038BD38B504460C20FEF7BBF9054627
:1022E80023682278C3F39D0023F0030302F0010260
:1022F800400013432B6063686B60FEF7ABF9A8607E
:102308002268A168C2F39D02520028F0A1FC284669
:1023180038BD994210B511D313D800EB410002EB38
:10232800410209B9084610BD30F8023D32F8024DA5
:102338001B1B002B02DB04D10139F2E74FF0FF3001
:10234800F1E70120EFE710B5044638B18068FEF7E1
:10235800A9F92046BDE81040FEF7A4B910BD38B56C
:102368000C4602210546FFF7A0FF002C2B78B5BFCD
:10237800012200226142214662F300038AB22B70D7
:10238800090CAB6808BF0121184620F8022B1FBFB3
:102398008AB2034602211A8069601A8038BD002378
:1023A800C0E900338360704728B103789B0702D4E3
:1023B8008068FEF777B9704738B504460D46496816
:1023C800FFF773FF2A782378A06862F3000323706D
:1023D8006A68A96862605200BDE8384028F038BCD5
:1023E8000A4629B90178426062F30001017070471A
:1023F800FFF7B5BF08B5FFF7D2FFBDE80840FFF704
:10240800EFBF920042F002020260002210B4C0E95D
:1024180001215DF8044B1946FFF7E2BFF8B51446F1
:102428001D469DF8187004210646FFF73EFF224618
:102438002B4627B1002D0CDA624265EB4503317853
:1024480067F3000131700021716052EA030102D183
:10245800F8BD0027F3E7D6E901104C1C746020F89A
:102468001120120C42EA03421B0CEEE753EC102B2E
:102478002DE9F0471E46924603788146F20F62F333
:102488000003037047F6F07313EA16420AD199F86D
:1024980000306FF3000389F800300023C9F80430D6
:1024A800BDE8F0879A42F2D0C6F30A54A4F2FF338B
:1024B800002BECDB04D10121BDE8F047FFF74FBF4B
:1024C800C6F31306A4F2EF38332B574646F48016AA
:1024D8004FEA28181EDCC3F13401A3F11402C3F13A
:1024E8001403002406FA02F2CF4026FA03F3CE4082
:1024F800174341461F43FFF7D8FEC9F804804445F7
:10250800CED0D9F8083023F814703F0C47EA0647B4
:10251800360C29E0A4F233440C334146241103F06D
:102528000F05FFF7C2FEC9F804802CB16200002134
:10253800D9F8080028F0D0FB002DE0D00AFA05F2FF
:10254800D9F8083023F81420C5F110031035A3F189
:1025580020072AFA03FA06FA05F526FA07F7DE40F5
:102568004AEA050A4AEA07070134C8E72DE9F843A9
:102578008F18C2F35B0204460D46511C9846089E0C
:10258800FFF793FE2378AC4600221FFA86FE68F315
:1025980000032370BC456046626002D3401BBDE85F
:1025A800F88301780CF1010CA1F13003092B05D94E
:1025B800A1F14103192B12D8A1F13703B342EDD28F
:1025C800A06890468146B8F1000F0FD100EB420198
:1025D80013B1023120F81230091A4A10DAE7A1F1D2
:1025E8006103192BDAD8A1F15703E7E7B9F800100E
:1025F80008F1FF380EFB013329F8023B1B0CE2E718
:10260800F8B5044615461E4691B1531E4FF0FF37E4
:102618001E44E90020460F310909FFF746FE2378DA
:1026280000216FF3000361602370C5B100230CE043
:102638000127EEE73278013D3E4402FA01F201F14A
:10264800080143EA02039BB201D00F29F2DD626858
:102658001039501C6060A06820F81230E5E7D4E912
:10266800011000EB4101FFF769FD6060F8BD38B566
:10267800057804460B7805F0010203F00103981A67
:1026880008D1D1E90132D4E90110FFF742FEEB0786
:1026980048BF404238BD884210B5044601D0FFF714
:1026A8008BFE23786FF30003237010BD884210B5AA
:1026B800044601D0FFF780FE63683BB12378C3F37B
:1026C8000002C2F1010262F30003237010BD8842C8
:1026D8001FB5044601D0FFF76FFE626862B9012199
:1026E8002046FFF7E2FD0123A26813806360237888
:1026F80043F00103237010E02378D9070FD56FF357
:102708000003237001230093A168ADF80E300DF18A
:102718000E030846FFF76EFD606004B010BD511C43
:102728002046FFF7C2FD01230093ADF80E300DF1EE
:102738000E03D4E901210846FFF731FD6060D6E7B2
:102748002DE9F8434B6805460E46144603B12AB9ED
:1027580031462846BDE8F843FFF72EBE02F10F01C7
:102768004FEA111803EB1111FFF79FFDA96814F048
:102778000F044FF0000ED6E9013208BF102408EB11
:10278800030702EB4302C4F1100407F1004C0CF1FB
:10279800FF3C01EB4C0C1946E14601BB6FF001020E
:1027A800C8F101082EFA04FE53434FEA48020CEB25
:1027B800030052422CF803E000EB48084046A8F119
:1027C800020828F089FA17B138F817309BB12B782E
:1027D8006F60327862F300032B70BDE8F88332F83B
:1027E800020D013940EA0E0020FA04FE29F802E938
:1027F8004FEA004ED1E7013FE5E72DE9FF410D46DD
:1028080049680646144601B132B92946304604B033
:10281800BDE8F041FFF7D0BDFFF747FDB768D5F831
:10282800088023466A6838464146FFF793FC3378A8
:1028380070600246297861F300033370DB070AD51C
:10284800002320096968ADF80E30994201D083420F
:1028580004D181420AD804B0BDE8F08138F8135099
:102868009DB101238142ADF80E3012D904F00F0456
:10287800012338F8101003FA04F4013C214206D170
:10288800BDF80E30002BE6D003E00133DDE7ADF8EC
:102898000E30012312B93B807360DCE700933946A0
:1028A8000DF10E033846FFF77AFC7060D3E773B575
:1028B80014460D460646D2E90132D1E90110FFF768
:1028C80028FD0028A2BF23462C461D4623786168B0
:1028D8002A785340DB071AD401313046FFF7E5FC6C
:1028E8006B680093AB68B068D4E90121FFF757FC27
:1028F800706023783278C3F3000300280CBF0023EC
:1029080003F0010363F30002327002B070BD304679
:10291800FFF7CBFC6B680093AB68B068D4E9012182
:10292800FFF768FCE4E7F7B514460F460546D2E919
:102938000132D1E90110FFF7ECFC0028A3BF2346C0
:102948003C4600260126A8BF1F46237861683A78CE
:102958005340DB0719D501312846FFF7A6FC7B68F1
:102968000093BB68A868D4E90121FFF718FC6860E8
:1029780028B1237803F001000EB180F001002B7814
:1029880060F300032B7003B0F0BD2846FFF78DFC01
:102998007B680093BB68A868D4E90121FFF72AFC8B
:1029A800E5E72DE9F04F15464A680C4685B06B6897
:1029B80006469A4222BF2B460D461C462B7869686C
:1029C800DB0722D4237813F001071ED1FFF76DFC33
:1029D800B068AD683B46D4E9011C99420CD100EBC4
:1029E8004101FFF7ABFB00237060327863F300020C
:1029F800327005B0BDE8F08F35F813203CF813406D
:102A0800224020F813200133E7E701313046FFF771
:102A18004CFC2F78237807F00108D5F804C087EA22
:102A2800030147F30007B06803F00109C94343F302
:102A38000003A268824601F0010E41F300019BB237
:102A480089B200930291B9B267460191A968A1F1D0
:102A5800020B6168A1EB0C0103918FB900EB4C01EB
:102A6800BEF1000F03D00123023120F81C30FFF71C
:102A780065FB706022782B78C2F300021340B4E73C
:102A88003BF8021F013F019B5940039B8844D91919
:102A9800B9429BBF32F8021B009B00995940029B28
:102AA800894408EA09014FEA19494FEA1848594088
:102AB8001EFA81F14FEA114E2AF8021BCDE72DE9E3
:102AC800F84F14464A680D46064663689A4222BF84
:102AD80023460C461D4623786168DB0732D42A78E2
:102AE80012F001072ED1FFF7E0FBA16864683A46AF
:102AF800D6F808C0D5E9013EE41A934213D101EB98
:102B0800430100220CEB4303944215D103EB440329
:102B18000022A3EB0C0358103378706062F30003B3
:102B28003370BDE8F88F31F812003EF81250284390
:102B38002CF812000132E0E731F8120023F81200F5
:102B48000132E1E701313046FFF7AFFB22782B78FD
:102B58004FF0010A616802F00108B06803F001094A
:102B680042F3000243F30003A468834692B29BB287
:102B7800A4F1020CD5E901E70D46AEEB010E2DB923
:102B880000EB4101FFF7DAFA0122C5E73CF8024FF2
:102B9800013D5440A0440EEB0504AC4296BF37F803
:102BA800024B1C465C40A14448EA09044FEA194913
:102BB8004FEA1848E4431AFA84F44FEA144A2BF807
:102BC800024BDCE7F0B514464A680D4685B06368E9
:102BD80006469A4222BF23460C461D46277861685E
:102BE8002B785F4017F001073BD1FFF75EFB237896
:102BF80013F0010329D16168B068A768D5E9012CF1
:102C0800891A9A4212D107EB4207002300EB4202CD
:102C1800994214D102EB4101FFF790FA002733786B
:102C2800706067F30003337005B0F0BD37F81340E8
:102C38003CF813506C4020F813400133E1E737F8B3
:102C4800134022F813400133E2E7CDE902770197F8
:102C58006B680093AB68B068D4E90121FFF7F1FA1B
:102C6800DCE701310127FFF720FB2B78DB4303F07A
:102C78000103039323780197DB4303F001030293D5
:102C88006B680093AB68B068D4E90121FFF7D9FA03
:102C9800C5E74B682DE9F04F044685B00E4615464A
:102CA8000BB1536843B923786FF3000323700023F3
:102CB800636005B0BDE8F08F81422ED1FFF70AFBB3
:102CC800A5420646074600D105466B68204671684E
:102CD8001944FFF7EAFA22680021A068C2F39D02AE
:102CE800520027F0F9FFB368D4F808E00022D6F8BC
:102CF80004900193F446AB680EEB49081146029321
:102D08006B680393039B934231D0ACF10200DDF86A
:102D180004B00023CDF8009018E0824204D1FFF7F8
:102D2800D9FA05460746D0E70027CEE730F802AFC4
:102D380053443BF802AB1946029B33F8123003FBAD
:102D48000A130099038001391B0C0091009900298E
:102D5800ECD14146881C13B10146A8F80030A1EB1C
:102D68000E010CF1020C013280464910CAE761607D
:102D780038462A7833785340227863F30002227069
:102D880005B0BDE8F04FFFF7DEBA4B6870B50546F1
:102D9800144613B11378DA0706D52B786FF30003BE
:102DA8002B7000236B6070BD636823B90121BDE8F7
:102DB8007040FFF7D4BA0846FFF78CFA064620465B
:102DC800FFF788FA012104462846FFF7C8FA636826
:102DD80083B1A3681B88DB0704D5324629462846F9
:102DE800FFF757FF0123D4E901210846FFF7B2F99D
:102DF800606038B93046FFF7A6FA2046BDE8704053
:102E0800FFF7A1BA324631463046FFF742FFDEE708
:102E18002DE9F04F0C4651688FB0934601310546B5
:102E28000393FFF742FADBF804200021A868002684
:102E38000132520027F050FF2B786E6020466FF366
:102E480000032B70DBF804100131FFF72EFA594606
:102E58002046FFF7B1FA039BD4F80890D4F8048011
:102E680048464146D3E9013702933A46AB68049392
:102E7800029BFFF74EFA002835D10123049A6060BF
:102E880013806B6023786168C3F3000200290CBFCC
:102E9800002202F0010262F30003039A23709BF8F8
:102EA800003012785340DB0740F1FC806B682A78C9
:102EB800003B18BF012363F300022A70002900F0C9
:102EC800F1800BA84FF0FF31FFF794FA0BAA2946BF
:102ED8002846FFF7ECFC039A214620460FB0BDE8D0
:102EE800F04FFFF7E4BC01DA6E60CBE7029B03F119
:102EF80000423346013A4FEA420A37F812100E04EC
:102F080003F101004ED509EB48014FF0000C9BB2CC
:102F180008F101000191CE46C3F11006023129F8EB
:102F280018C0059660608E4540D337F812209A4045
:102F38000592029A012A09D907EB0A02C3F1100186
:102F480032F8022CCA40059911430591029A801A59
:102F5800049A686000F10040013802EB40020792D1
:102F68000AF102020992BA1E0892D4F804A0029A41
:102F7800524529D30AF1004A0022C3F110000AF190
:102F8800FF3A09EB4A0AD14573D96FF000416B68E3
:102F98002BB15A18049830F81220002A73D06FF019
:102FA800004175E04900034689B2A8E7BEF80080F1
:102FB80008FA03F64CEA060C059E28FA06F82EF8DD
:102FC80002CB1FFA88FCAEE7019A0198118832F803
:102FD800022C42EA01420599B2FBF1F20999411A21
:102FE8000020069186460899069F0E460199B94227
:102FF8000DD809880844A8BB079921F80229019A25
:103008000791023A01920AF1FF326260ADE736F8A1
:10301800021FB7F80080994018FA80F841EA1E4E5E
:103028001FFA8EF151431FFA81FC090CA8EB0C0C16
:10303800C1EB204127F802CB01EB2C40D6E738F84A
:10304800021F994041EA1E4EBCF80010394411FA9B
:103058008EF10F0C2CF8021B01996145EFD838440A
:10306800013AC8E70027DDF82080DDF818C0BE4621
:10307800F2E7BAF8001041FA03F6814032432AF821
:1030880002298AB27FE7013B6B6080E7013B6360FE
:103098006368002B3FF4F6AE5A1839F81220002A5C
:1030A800F4D0EFE60FB0BDE8F08FF0B51F464B68DF
:1030B80085B004460D4616464BB11378DA0706D498
:1030C8007B68012B0BD1BB681B88012B07D12378A8
:1030D8006FF3000323700023636005B0F0BD012186
:1030E8002046FFF73CF97368002BF6D02846FFF717
:1030F800F1F805463046FFF7EDF8064601A8FFF758
:103108004EF97368B3B1B3681B88DB070AD52A4642
:1031180021462046FFF7BDFD3B462246214601A831
:10312800FFF776FE0123D6E901210846FFF712F8DA
:10313800706058B901A8FFF737F92846FFF703F977
:10314800304605B0BDE8F040FFF7FDB82A462946ED
:103158002846FFF79EFD3B462A46294601A8FFF769
:1031680057FECEE7D0E901210346002001EB4202D9
:1031780010B5914204D31B78DB0748BF404210BD0D
:1031880032F8024D44EA0040F3E730B5D0E90124B3
:10319800002304EB4202944206D302780120D207AE
:1031A80048BF5B420B6030BDB3F5004F04D232F824
:1031B800025D45EA0343EEE70020F4E72DE9F74F07
:1031C800DDF830C006460F46019201B30CEB030050
:1031D80001241A460021A146D6E901E8BEF1000FF4
:1031E80017D10199002949D0002A47D1002B45D091
:1031F800002F3FD09CF800302CB1DB43347884EAB0
:10320800D31404F00104204603B0BDE8F08F6046F3
:10321800DEE738F8025B4FF0020A45EA014196F80A
:1032280000B08DB21BF0010F1FBFED4359FA85F9AD
:103238001FFA89F5C9F3072992B97CB1EDB2B5FA3D
:1032480085F56D092C46BAF1010F4FEA112102D11B
:103258000EF1FF3EC2E74FF0010AE0E71546F1E73D
:10326800EDB227B100F8015C0138013AEBE700F84C
:10327800015BFAE7634413F8013CBDE7337813F0C8
:10328800010F14BFFF210021002F18BF604627F04F
:1032980023FDB8E700000000D0E901329FED0C0BD8
:1032A8009FED0D6B02EB43039A4205D30378DB07CE
:1032B80048BFB1EE400B704733F8021D07EE101AF5
:1032C800B8EEC77BA0EE067BB0EE470BECE700BF7D
:1032D8000000000000000000000000000000F040B6
:1032E8002DE9F84F446881468A4615461E469DF8E2
:1032F80028B00B9F9CB982B1551E3A4615F8011F9C
:10330800134639B930221A70002203F8012FD81B4E
:10331800BDE8F88F02F8011BF0E73B46F2E76400CE
:103328002046FDF797F980462246D9F8081027F07D
:103338008FFC3B463A4608EB0401A6F13A008C1E86
:103348000026A045A44632D930361446392E88BF07
:10335800361804F8016B4646B142B44632D8BBF180
:10336800000F05D0E31A032B02D1941C82F801B098
:103378004046FDF797F95DB1284627F0E7FC2A1883
:10338800611E1346AB422FD8954288BF00200444E3
:1033980099F80030DB0744BF2D2304F8013B3B4676
:1033A800621E9A4225D80023E01B2370B0E7BCF8C0
:1033B80000C04CEA0646B6FBFAFC0AFB1C6624F879
:1033C80002C9BEE7BCF800C00236BCF1000FC3D08A
:1033D800BBF1000F06D0E61A032E02BF941C82F838
:1033E80001B023462246AAE713F8016D01F8016FE0
:1033F800C8E71978107803F8010B02F80119D0E72B
:10340800D0E9023293423DBF5A1C826018784FF0CF
:10341800FF307047036810B5044613B14068FDF7E4
:1034280041F92046BDE81040FDF73CB9F8B50C4617
:103438001F46164605461020FDF70CF9054B84601B
:10344800C0E900743444C4606B60034B2860AB600F
:10345800F8BD00BF093400081D34000802690A2AB3
:1034680010B5044635D1836A013383620123A2690A
:10347800E36263696261226F2361002A31D0616E61
:103488008A423BBF501CA16E0022206738BF8A5C6D
:10349800A2613BB9E26963662261226A23676261BD
:1034A800626AA261D4E905230D2A07D10A22934250
:1034B800626103D1D4E901039847A061A36901338C
:1034C80006D163695A1C03D00A2B1CBF0A23A361C7
:1034D80010BDC36A092A04BF073323F00703013369
:1034E800C5E7D4E901039847A061DBE70369272B07
:1034F80008D0222B06D0722B06D14369272B01D086
:10350800222B18D101207047752B05D0622B0BD0C8
:10351800662B09D00020704740692728F2D0A0F117
:1035280022035842584170474369272BEAD0222B7F
:10353800E8D0722B04E0662B01D18069EDE7622B9D
:10354800E8D1FAE738B504460D462069431C1AD07D
:103558000A2806D10DB1636BB3B12046FFF77EFF91
:10356800F3E7FEF75DFD0028F7D12369232B08D187
:103578002046FFF773FF23695A1CE6D00A2BF7D1C0
:10358800E3E75C2B02D00025284638BD63690A2B87
:10359800F9D12046FFF762FFDFE70000436E2DE90F
:1035A800F74F0446A3B1036F93B929216030FEF7A2
:1035B800D9F82369E36163692362A3696362A36E2F
:1035C8001A7822615A7862619B78A3610323236782
:1035D8000023012120466365FFF7B4FFA36A216B2E
:1035E800024663640029E36AA36407DA072301310A
:1035F80084F84C30216303B0BDE8F08F04D0062373
:10360800013984F84C30F5E7002836D02046FFF71A
:1036180099FF05236FF00042E56A84F84C30013DBC
:10362800D4E90F30991830F811108D42E3D019D928
:10363800A16B8B4207D308314900FDF726F8A36B2D
:1036480020640833A363D4E90F32591CE16322F8DC
:103658001350236B01332363CDE7013BE363236BF3
:10366800013B2363E36B991830F811108D42F4D3B2
:10367800C1D0022384F84C30BDE721694D1C02D12A
:1036880084F84C00B7E72046FFF730FF8146002852
:1036980000F0EB8104F1500884F84C20236994F879
:1036A8004C60752B73D0622B0CD16369722B0ED0D2
:1036B800002E40F002830C2384F84C302046FFF79C
:1036C800CDFE62E0722B1AD16369622B0AD1002EFB
:1036D80040F006830C2384F84C3020460027FFF77F
:1036E800BDFE1BE0662B0FD0002E40F0F5820B23A9
:1036F80084F84C3020460027FFF7B0FE11E0662B17
:103708003DD16369722B0ED1002E40F0D8820B2375
:1037180084F84C304F462046FFF7A0FE2046FFF7BE
:103728009DFE4E4609E0002E40F0CD820B234F4609
:10373800204684F84C30FFF791FE23692046222B5F
:103748000CBF4FF0220B4FF0270BFFF787FE2369C2
:103758005B4521D163699B451ED120464FF0030A82
:10376800FFF77CFE2046FFF779FE37B1636E23B979
:10377800A34904F16000FEF738F800251AE0002E8E
:1037880040F0B2820B2384F84C300027A2E2002ECE
:1037980040F08F820B238FE74FF0010AE5E75B4586
:1037A80040F08C8040465946FDF7E3FF204601353E
:1037B800FFF754FE2369581C00F05481BAF1010F39
:1037C80000F04D815545EAD329464046FEF726F8D4
:1037D80001212046FFF7B6FE2046FFF787FE0028A6
:1037E8007FF45CAF07E720460091FFF737FE2369B7
:1037F8007B2B1CD140460099FDF7B4FF2046FFF70C
:103808002DFE7B214046FDF7ADFF21697B29EAD0DB
:103818005C2940F01E8120460091FFF71FFE2569B4
:103828000099002E50D04046FDF7A3FFBBE02821A9
:103838002846FDF797FF636E00222169481C0FD0C8
:1038480032BB3A290CD07D290AD0212920D16069C0
:103858007238012821D8A0693A2801D07D281CD1C6
:10386800D4E91921881810F8010C3D2807D1D21A7B
:1038780019444046FDF7D0FE636E013B6366284657
:103888002921FDF76FFF2C212846FDF76BFFB8E7CC
:1038980021F020005B280CD10132C9B22846CDE9BD
:1038A8000032FDF75FFF2046FFF7D8FDDDE9003263
:1038B800C3E75D2808BF02F1FF32EEE72169002F58
:1038C800A6D004F16005A1E7782D00F295805B2D64
:1038D80007D8222D7DD01AD80A2D66D004F15000C1
:1038E8007FE0A5F15C031C2B00F28E80DFE803F07B
:1038F800718C8C8C8C262A8C8C8C3C8C8C8C8C8C33
:103908008C8C328C8C8C198C2E40368C7400552DF6
:1039180056D065D8272D5CD04E2D75D139480AF080
:1039280021FE94F84C300D250B2B60D00C2B40F069
:103938008780E9B24046FDF715FF36E094F84C3031
:103948000725F1E794F84C300825EDE794F84C305A
:103958000925E9E794F84C300A25E5E794F84C3056
:103968000B2B71D00B25E1E794F84C300C25DBE7E5
:1039780094F84C300C2B27D00323002520460193C4
:10398800FFF76CFD226910460092FEF767FB0028DE
:1039980000F0AE81009A2D011046FEF79FFB019BB7
:1039A8000544013BEAD2691C47D120460025FFF7B0
:1039B80055FD23695A1C4ED1032384F84C3003E784
:1039C80094F84C300C2B09D15C2104F15000FDF720
:1039D800D0FE94F84C30A7E70123CEE70723CCE7C5
:1039E8004046FDF7C6FE94F84C300B2B2ED12946E5
:1039F8004046FDF7BEFED8E704F1500014E700BFCB
:103A08008FAB040898AB0408A5F13003072B12D834
:103A18001D46032308E020460093FFF71FFD226997
:103A2800009B303A02EBC5056269303A072ABAD8DA
:103A3800013BF0D1B7E75C2150E7B5F5881FD2D339
:103A4800012384F84C30B0E71D46D0E7FF2DF7D8A6
:103A58006CE7C9B26EE7BAF1010F7FF4A0AE0A2B8A
:103A68007FF4B0AEAA45A7D8AEE60846FEF7E2FA5C
:103A7800054698BB20695F2830D07F282ED8FEF7EE
:103A8800E3FA002869D021692E2971D10A2384F824
:103A98004C3004F150060A273046FDF76AFE2046EE
:103AA800FFF7DCFC2069431C3FF4A5AD002D7AD15B
:103AB80020F02003452B76D16521304684F84C70E0
:103AC800FDF757FE2046FFF7C9FC21692B2962D074
:103AD8002D2960D00846421CEAD18CE5082304F160
:103AE800500584F84C30217C2846FDF73BFE2046E3
:103AF800FFF7B4FC2069411C1BD128467E4FFDF717
:103B080022FE0025064657F8041B304627F02CF9FC
:103B180000281CD10E35EDB2112D84F84C507FF4DD
:103B28006AAD764BD3F80C32002B14BF0E2310234A
:103B3800A0E5FEF77FFA0028D5D120695F28D2D00A
:103B48007F28D0D8FEF780FA0028CCD1D5E7FFF639
:103B580052AD0135242DD6D14DE523692E2B04D144
:103B68006069FEF771FA00288DD10027644D40E0A6
:103B78000923302984F84C308BD1636943F0200342
:103B8800623B162B97BF5F4D01251D4105F00105CE
:103B980085F001057DE73046FDF7EBFD2046FFF790
:103BA8005DFC206997E7FEF745FA28B121692E29BF
:103BB8000DD184F84C700EE02069FEF745FA002814
:103BC800F4D123692E2BF1D05F2B07D013E521F018
:103BD80020034A2BEDD03046FDF7CBFD2046FFF7FA
:103BE8003DFC5FE7652E01D0632E00D1013501371A
:103BF80001352E7816B12369B342F3D12046FFF779
:103C08002DFC0EB9012335E5212E07D123693D2B63
:103C1800F8D12046FFF722FC39232BE52E2E0FD1B1
:103C280023692E2B02D163692E2B01D05C2321E559
:103C38002046FFF713FC2046FFF710FC0D2319E57B
:103C480003357E1C15F8023C632B23D0652B08D165
:103C580015F8012C23699A4225D137462046FFF7EB
:103C6800FDFB294BDB5D542B84F84C300ED0553BC3
:103C7800DBB2042B3FF6BFAC012202FA03F313F0C8
:103C8800150F13D113F00A0F3FF4B5AC636B013372
:103C98006363B0E415F8012C23699A42E1D13746F1
:103CA8002046FFF7DBFB02350136CBE7636B013BB0
:103CB800EEE70B2E7FF49FAC00E50C2EFAE70B2EF7
:103CC8007FF499AC26E50B2E7FF495AC4F46204641
:103CD800FFF7C4FB002630E50B2E7FF48CAC09E51A
:103CE8000C2E7FF488ACF8E40B2E3FF44EAD82E442
:103CF800012384F84C30A3E628AC04083C000024D7
:103D08004AAB0408FEDFBFFFB8AC04087FB501ADBD
:103D18000646742085E80E00FCF79CFC0446034622
:103D280095E8070043F8046B002583E807000123A2
:103D38006FF001021420C4E90A320A22C4E90C55C2
:103D4800C4E90E23FCF786FC2021206404F150000E
:103D5800FDF78BFC294604F16000FDF786FC236C17
:103D6800204625671D802561C4E90555FFF776FBC8
:103D78002046FFF773FB2046FFF770FB2046FFF74E
:103D88000DFCA36C012B06D094F84C30052B1CBFFE
:103D9800062384F84C30204604B070BD30B585B099
:103DA800054601AC2046FFF741FB284694E80E0083
:103DB800FFF7ACFF05B030BD30B585B0044601460D
:103DC80001AD28461FF0E6FE204695E80E00FFF7F5
:103DD8009DFF05B030BD10B5044690B1C36840687A
:103DE800984704F15000FDF769FC04F16000FDF705
:103DF80065FC206CFCF756FC2046BDE81040FCF73B
:103E080051BC10BDD0E90432013B036152F82300D4
:103E18007047036942695B1A013B52F823007047F7
:103E2800F8B5446A06460D46B4B1D4E900030B441C
:103E3800834222D90831002201442046FCF730FC95
:103E48000246B8B9616820460831FCF729FC636866
:103E58002360336A63603462802D2F4638BF802721
:103E680007F10800FCF7F6FB0023076004464360EF
:103E7800706202E023682B442360606808340544BC
:103E880044F8045C2044F8BD38B50D460C211446AE
:103E9800FFF7C6FF4FF49D720560C0E9012438BDE5
:103EA80038B5D0E9033204460D469A4208D3103398
:103EB80040699900FCF7E9FBE36860611033E3604F
:103EC800D4E90432591C216142F8235038BDF8B5B1
:103ED80004461D460F461646D0E90003834208D320
:103EE8001030C100A068FCF7D0FB2368A060103335
:103EF8002360D4E90103421C626003EBC00253F85B
:103F0800301067F3170143F83010D6705560F8BDCC
:103F180010B48469CAB20023616C5DF8044BFFF7E2
:103F2800D6BF10F001021CD110F003030CD000F032
:103F38000F03062B15D00A2B11D100090D380328C1
:103F48008CBF00200120704770B102793A2A08D04E
:103F58002D2A08D18068B0FA80F0400970471046D1
:103F6800704701207047184670470000C20702D505
:103F780040F001007047830710D0030900F00F00DC
:103F8800062803D1D80040F002007047A3F10E00C4
:103F9800022809D8064B53F82000704730B103793E
:103FA8003A2B03D18068704702487047024870472F
:103FB8003CAD0408DCD20408B4D9040838B5054679
:103FC8000C46FFF7AEFF38B12846FFF7CFFF0BF0DE
:103FD800B5FA031B5842584138BD2DE9F0410F4648
:103FE80005461446114689B9204612F06FFE01466F
:103FF80000F10808A4B90A4628463946FFF744FFE5
:1040080001462846FFF74CFF012007E00139284602
:10401800FFF7FFFEFFF785FF0028E4D1BDE8F08138
:104028002846013CFFF7EEFE0646FFF79FFF48F8DB
:104038002400002EDED0B307DCD1686A00F1080343
:104048009E42D7D3426813449E42D3D273681B0A58
:104058000233A2EB83024260CCE70000F7B5866921
:1040680005460F4696F84C20082A1FD1D6E91510A8
:10407800FDF73CF9902F04460ED1C100002205F14E
:10408800280041F002010AF017FE28B14268D30760
:1040980024D542F0010002E0200140F00200014670
:1040A800284603B0BDE8F040FFF7FABEA2F10903C5
:1040B800032B31D8DFE803F0020A172B002233461E
:1040C800D6E9151008F092FB0246E0E700960023B7
:1040D8000122D6E9151008F007FC0246716C284643
:1040E800FFF7D2FEDBE7D6E915100A2906D8FDF757
:1040F800FDF830B1000140F00600D0E7FDF7A8F860
:10410800F7E7D6E91521064810F081FEE5E7D6E97C
:10411800151010F067FFE0E7120142F00A00BEE751
:1041280068D8040810F00102034604D040F00103E7
:104138000B600120704790B110F0030010D11A797C
:104148003A2A0ED19B6813F001000B60F1D19A074F
:1041580007D11868034BC31A584258417047704733
:1041680010467047B4CB04080021FFF727BF012190
:10417800FFF724BF2D2A2DE9F04F044687B0884663
:1041880016461D460ED10021FFF743FE002800F019
:104198006381830703D10379922B00F05D8107B017
:1041A800BDE8F08F922A30D10021FFF732FE014698
:1041B800002800F0FC81870707D14768FBB2952BE0
:1041C80018D1013D2046FFF71DFEA6F12303DFB2FB
:1041D800092F00F2EA81092B00F2E781DFE813F0EA
:1041E800D600D600D6001101110111016101D600D7
:1041F800E5019F01962BE8D127F0FF072046FFF73E
:1042080001FE47F092074F60C9E7962A13D101359E
:10421800D0E9012303EBC20313F8153C2D2B40F022
:104228001B812A46FFF7D9FE002800F01581636834
:10423800023B6360B3E7A2F11E03012B39D805F1F5
:10424800FF3A8DB1AB46A94609F1FF3920464946E8
:10425800FFF7DFFD236962690746A3EB0B0342F80A
:104268002300B9F1000F09D1002151451CD16D1A65
:10427800012D94D0332E00F0B181EDE01E2E0BD12C
:10428800FFF775FF0028EFD13846FFF76DFF00B93B
:10429800D3460BF1FF3AD7E7FFF766FF0028E3D1D3
:1042A8003846FFF764FFF2E720460131FFF7AAFD21
:1042B800DBE7202A19D10021FFF7ABFD0746FFF7FE
:1042C80053FF78B93846FFF752FF002800F0C48042
:1042D800EA212046FFF796FD204607B0BDE8F04FDB
:1042E800FFF7DEBD4FF48571F3E7052A7FF46DAF64
:1042F8000021FFF78EFD0746002800F0AD80B807C3
:1043080040F0AA80D7F804A00AF0FE03562B00F06C
:10431800A38001212046FFF77CFD00F00F03022B4C
:1043280040F09A805FFA8AFABAF12C0F40F0948034
:10433800BB6803F00F02022A40F08E801B09482B4D
:1043480040F08A80FB68002B00F0868013F0030A97
:1043580040F082801A79302A7ED1D3F808B04FEA2B
:1043680010195846FFF7DDFD002840F0B380A34937
:104378000190A3480DF04AF8A1690546019B3A68E7
:1043880009680DF01DF92846FCF73CF9691E20461E
:10439800FFF73FFD03A9FFF7C5FE00285CD0022FF9
:1043A800A5F1020996BFA6F10D072227FFB2B9F1C0
:1043B800000F09DA002D40F0ED80039AD30740F191
:1043C800EE8042F0010187E749462046FFF721FDCC
:1043D80004A9FFF7A7FE00283FF44CAF222FDDF811
:1043E80010A008D052460399384609F1FF3909F060
:1043F800CBFE0390DBE750460EF0E5F90028F1DA32
:1044080038E7691E2046FFF704FD03A9FFF78AFE77
:1044180010B3A5F10209B9F1000FCBDD09F1FF31A5
:104428002046FFF7F6FC04A9FFF77CFEA0B1494639
:104438002046FFF7EEFCC0F3071042280CD04428B2
:104448000AD02438DDF810A0C7B250460EF0BBF9E8
:104458001A2F19D800281BDAA91C20468900FFF753
:10446800DFFC074646EA052300F10801C0F8008092
:104478004360002D40F0BA80962E03D1394620467D
:10448800FFF70EFD394627E71E2F01D90028E3D094
:10449800524603993846A9F1020909F075FE0390BE
:1044A800B9E700212046FFF7B4FC03A9FFF73AFE5D
:1044B8000028D1D001212046FFF7ABFCC0F307103C
:1044C8000399332816BF3F380220C0B209F0C6F856
:1044D80003906FE758464FEAC901FFF747FD0746C3
:1044E800012241F0020104F128000AF0E5FB4760CF
:1044F8004846FCF7C2FF037820465F2B08D1FFF738
:1045080081FC20465546D0460826FFF77BFC5CE632
:10451800FFF778FC59462046FFF7C2FC9CE70121CB
:104528002046FFF776FC074600212046FFF771FC7E
:1045380007F00F03022B8FD100288DD010F0030253
:104548008AD10379322B87D13909D0F808902D48C0
:10455800C90041F002010AF0AFFB00283FF47CAF2C
:1045680004AA4FEA1911406808F09CFF049B002B2D
:104578003FF472AFD90707D49A077FF46DAF196873
:10458800214A91427FF468AF059A002A7FF464AF0C
:1045980003930FE72046013DFFF734FC0AE729465D
:1045A8002046FFF771FC014696E6922E11D1D4E918
:1045B800012303EBC20313F8053C2D2B14D19226DB
:1045C8002A4641462046FFF708FD00287FF4E7AD5C
:1045D80042E7062E02D0362E7FF44CAE2A464146DC
:1045E8002046FFF7FAFCF0E7922635E7013D204622
:1045F800FFF708FC41F825003BE700BFE4AC0408DE
:1046080044C5040848AD0408B4CB04080346006850
:1046180030B550B184070AD14468E5B28D4206D15D
:1046280000F10803200A136030BD0346FBE70120B0
:10463800F9E700002DE9F04FA94B97B000240D468B
:10464800029005A80192CDE90731A649CDE90544B4
:10465800FBF79EFF40234FF40070CDE90934FBF7C8
:10466800F9FF20230B908020CDE90C34FBF7F2FFF3
:104678002146CDE90E0513A8CDE911440AF0E6FA62
:10468800019B002B40D0022B0CBF3F222246002367
:10469800696C09A8DFF864B2FFF719FC00230A9CCB
:1046A800002C00F07B81013C0B998F4F01EBC40279
:1046B80051F834100A94D678C1F317098B49632E40
:1046C800526811F806A08A490AF00F08895D88BF68
:1046D80041F4807107EB41070AF03001102915D029
:1046E800202942D0002B00F01F81B8F1020F40F0C2
:1046F8000781012A10D01AF0010F02F1FF3340F0B0
:104708003D81012B1FD0E8E03D22C0E702B1D3B1C3
:1047180007EB4207904501D80123C0E7BA4637F8AE
:10472800023B03EA0B01B1F5805F0ED195F84C10FE
:10473800C3F30B03994216D109A83146FFF78EFC43
:104748002846FEF72BFF0023A9E7531C434504D254
:104758003246494609A8FFF7BAFBBAF8001009A87B
:10476800FFF7D6FBEFE70132D4E77BB102F1004354
:10477800013B37F813300BEA0303B3F5405F1ED152
:10478800002109A80392FFF78BFB039A07EB420469
:10479800904528D8019B0BB1052E4DD0002407EB7E
:1047A8004803A0469F426AD1B8F1010F40F08C80BF
:1047B8001AF0400F00F08880002631467EE0012A7A
:1047C800AAD995F84C30062B40F0168149494A4839
:1047D8000CF01CFE044600236A6C29680CF0F0FEFD
:1047E8002046FBF70FFF039434F8021B01EA0B0085
:1047F800B0F5805F17D1C9B295F84C0088420ED148
:10480800082805D1314609A80392FFF727FC039A27
:1048180028460392FEF7C2FE039A0132B8E7002A3F
:104828003FF47AAFCDE7531C4946324609A8FFF753
:104838004EFB039B198892E7002109A8FFF7E9FAC4
:104848000028ABD1012109A8FFF7E3FA830710D0AC
:1048580000F00F000228A1D009A8FFF7D3FA09A891
:10486800FFF7D0FA00230822494609A8FFF782FC7F
:1048780069E7002892D003793A2BEDD08EE733F818
:10488800022D02EA0B01B1F5805F06D1D2B2082AE7
:1048980088D1013408F1010884E7214609A8039367
:1048A800FFF7B7FA039B08B108F10108013479E76B
:1048B800FFF7A8FA0136002818BF0146A64209A842
:1048C800F6D1FFF7EDFA3EE71AF0800F04D0013475
:1048D800002109A8FFF7E4FA23463246C4E700BFDF
:1048E800DF3D0008BBD300082CAE0408B4B10408AF
:1048F8007CAD0408F0AC040820C5040800F0FFFFF4
:10490800012A3FF409AF12F0010002F1FF330AF067
:10491800010130D0B8F1030F7FF453AF00293BD128
:10492800012BDAD10123D8E708EA020303F00103D7
:1049380037F8134004EA0B01B1F5805F13D1C4F3D3
:104948000B0495F84C10A14202F1010409D11BB9DE
:10495800314609A8FFF782FB2846FEF71FFE2246CC
:10496800E2E72246C1E6531C4946324609A8FFF74A
:10497800AEFA2146F3E600293FF4C3AE0021788859
:104988000BEA0000B0F5805F08BF5308012BA4D1E3
:1049980000293FF4D8AEC5E70121F0E713A80AF0D3
:1049A80069F9129850B1416822460831FBF778FE40
:1049B800129B5A681A60119A5A60119395F84C30F4
:1049C800002B7FF4FEAE0D9B002B3FF4FAAE0E9B3E
:1049D8000B981B681093FBF765FE0E98FBF762FEB9
:1049E8000120FBF7DDFD029BDDE9100183E80300F0
:1049F800184617B0BDE8F08F022B01D10349E6E64F
:104A0800042B03480CBF03490349E1E602AD04083F
:104A180044C5040824AD040837AD040838B5044675
:104A2800406808B9606038BD4568FBF73BFE28461A
:104A3800F7E70000F8B5054630200E461746FBF7A5
:104A480022FE072D04460570C66001D0012D0FD146
:104A5800B368C3F30F13A38208F0FEF804232061A0
:104A680020202783E384FBF7F5FDE0622046F8BDAC
:104A7800014B5B5DEFE700BF64B2040810B5044664
:104A8800C06AFBF70FFE2046BDE81040FBF70ABEE0
:104A980030B500220446058D954201D8002030BD6E
:104AA800E36A03EBC20043688B42F8D00132F3E7B4
:104AB80070B504460D461646FFF7EAFFC0B9E38C09
:104AC800228D9A4208D30633E06AD900FBF7DDFD50
:104AD800E38CE0620633E384238DE26A591C02EB1F
:104AE800C300218502F8336000234560437043808A
:104AF80070BD034618465B68002BFBD1FFF7C8BFA3
:104B0800F8B544680E462CB9F8BD042BFCD1052332
:104B18000370F9E7254628466D68002DF4D07768BC
:104B28003946FFF7B5FF0028F5D00378043B022B80
:104B3800EAD806253570002239462046FFF7B8FF27
:104B48000378002BE1D105706468F4E7036A1B8BD6
:104B5800012B1EBFC3685B18C3607047836A10B51A
:104B680004469B6F406A9847238B226A0133918CD5
:104B78009BB29942238338BF938410BD038B013BBA
:104B880010B503830446836A406AD3F88430984793
:104B980020460121BDE81040FFF7D8BF2DE9F04FAE
:104BA80085B004460D46984603921BB1CB8A43F064
:104BB8000803CB82039BEB83236ADA8A42F0300234
:104BC800DA821B78002B46D1A36A2946039AD3F8C8
:104BD800B4604346606AB44605B0BDE8F04F60472C
:104BE800DB6A03EBC60B13F83630053B012B1DD8E7
:104BF8004FF0000917E0EB6A03EBC90213F83930EC
:104C0800062B0ED1DBF804105368994209D1A36A28
:104C18000AF1010ABBF802201B69606A1F460023DB
:104C2800B84709F101092B8D4B45E4DC0136236AAD
:104C38001A8DB242D4DCD4E90903BAF1000FC3D00B
:104C4800CDF800805246D3F8B8402946039BA047C8
:104C580005B0BDE8F08F0026B246E8E7836A002178
:104C680010B50446D3F88830406A9847A36A606A4A
:104C78000F211B6B9847A36A606A0121D3F8CC30D7
:104C8800984720460321BDE81040FFF75FBF38B5BD
:104C9800836A04460022406A5B6C9847A36A606A8C
:104CA800D3F8C05000231A461946A8472046BDE845
:104CB8003840FFF7D3BF836A002289681B6D090952
:104CC800406A1847836A8968DB6B406A184710B5E1
:104CD8000446084611461A46FFF7ACFE236A4360AD
:104CE80000238360E3690BB9E06110BD1A469B6835
:104CF800002BFBD19060F8E72DE9F04F87B005460F
:104D080000AF002946D08B074FD10B790C46682B92
:104D180005D001F00F03022B4CD109093BE0CB6809
:104D28001B0913608C68ACB304F00F03022B46D048
:104D380001232646BB6056F8043F4FEA1329B246C2
:104D480009F1FF3B06EB8908D0453AD10BF107037F
:104D580023F00703ADEB030D0023E846C7F80CD09A
:104D680056F8040F07F114013B600009FCF791FBAA
:104D78007A69014640467A6025F06AFF3B687A689E
:104D880001334244994523D090464FF02E0208F84B
:104D9800012BE5E701211160AB6A0022686ADB6A32
:104DA80098471C37BD46BDE8F08F01F00F03022B72
:104DB800B3D00C468B681B0913600023B9E721099F
:104DC800EAE75AF8040F0009FCF74CFB8344BBE7F9
:104DD8005946F868FCF78AFAAB6A01460022DB6A92
:104DE800686A9847BB68002BDBD008345445D8D094
:104DF80054F8041F0022AB6A0909686A1B6D9847BA
:104E0800F4E731B101F003038268134304BF0B6870
:104E1800836070472DE9F04107461E4659B111F0ED
:104E2800030510D14B68D8B290420CD14FEA132831
:104E38000C1D454501DBBDE8F08154F8041F3846D8
:104E48000135B047F5E738463346BDE8F041184725
:104E5800F8B50E4611461A460023044685780769B8
:104E6800837003610E4BFFF7D5FF6368BBB9618A96
:104E780051B1228A42B9A36A606AD3F8A030984730
:104E8800A36A606A1B6C9847238A3146628A204667
:104E9800FFF784FE003D276118BF0125A570F8BD06
:104EA8000558000870B5437805460C46012B06D115
:104EB800036A0A4602211B8BFFF709FF2061A268DB
:104EC800284621694C23BDE87040FFF7C1BF70B583
:104ED8001346427805460C46012A04D10A460721A2
:104EE800FFF7F5FEA061A66928464623E268314629
:104EF800FFF7AEFFB08A70BD024B9D228968FFF7AD
:104F080089BF00BF055D0008024B6B228968FFF767
:104F180081BF00BF9177000838B543680D46044645
:104F280011464BB905480CF071FA294660602046D5
:104F3800BDE83840FFF765BF38BD00BF44C5040869
:104F4800014AFFF7E9BF00BF6BB204080B79092BD0
:104F58004FF6FF7370B508BF858A044618BFC58A27
:104F68009D4202D1064AFFF7D7FF218B628BA36AC5
:104F78008A1A606A29465B6FBDE87040184700BF0F
:104F880078B2040838B5054679B101F00F03022B51
:104F98000DD10C09204609F0C9FC002806DA224682
:104FA800054906480CF0CCFA6860002038BD044A70
:104FB800FFF7B2FFF9E700BF91B20408D8C40408AC
:104FC80096B2040870B5144605460E46127883B1A9
:104FD80032B1032A04D0104ABDE87040FFF79CBFE5
:104FE800032661682670286AFFF783FD00B1067002
:104FF80070BD62B9012321462370006AFFF780FD66
:105008002378012BF4D1054A31462846E4E7062ADD
:10501800EED0034AE0E700BFA6B20408B3B2040822
:10502800C0B204082DE9F341437804460D46012B2C
:105038001AD10B79102B0CBF4FF001084FF0000864
:1050480008D0036A1B782BB9114A02B0BDE8F041B9
:10505800FFF762BF01AA6D2105F108000026FFF7DE
:10506800D5FA0746B74202D102B0BDE8F081019BEC
:105078000022206A53F8261001360909FFF718FDA7
:105088004346024629462046FFF79CFFEAE700BF51
:10509800C7B204082DE9F8430446006A16460D46CF
:1050A800C28A910706D5344A29462046BDE8F84306
:1050B800FFF732BF05F00F01022917D1A3788BB192
:1050C800838B01338383290900274FF001090029C5
:1050D8004FD00022FFF7ECFC03788046002B33D03A
:1050E800264AE1E7438B01334383ECE729792F46CE
:1050F800B1420BD1A278A96822B1828B0132828396
:105108000909E2E7428B01324283F9E7994213D158
:10511800A778002FC7D10123A370AB684BB303F066
:105128000F0142F004024FF003090229C2821CBF9A
:105138001F46BB681909CAE7AB6842F002024FF084
:1051480005091909C282C2E7042380F80190037097
:10515800236A1B8B032B0CD1482E0AD14FB1F96857
:105168002046FFF70FFF98F8013043EA001388F84C
:105178000130BDE8F88300BF37AD0408DDB204088C
:1051880049234822FFF786BF4F234E22FFF782BFED
:1051980010B4026A044640780B46012804D1104630
:1051A8005DF8044B02F05FBDA16A606A20315DF8CA
:1051B800044B02F067BD10B404460B46006A6278DF
:1051C800012A03D15DF8044BFFF772BCA16A0246BD
:1051D800606A10315DF8044B02F054BD70B50546A5
:1051E8000C4600292DD0CA0706D5836A49105B6B87
:1051F800686ABDE8704018478B0716D004F00F04A2
:105208000909022C0AD0062C0CD0052919D0836A6A
:10521800C9B2406A1B6BBDE870401847BDE87040D2
:10522800FFF7C9BF836A9B6BE2E7836A0968DB689B
:10523800406A98472279034B2146284653F8223082
:10524800D7E770BD7CB404082DE9F74F05460C4636
:1052580016461F462046FEF787FF40B16EB9AB6A77
:1052680039469B6E686A03B0BDE8F04F1847204680
:10527800FEF77DFF20B1002EF1D103B0BDE8F08F1D
:10528800002C48D0A30746D163684FEA132BDBB242
:105298001E2B18D1DEB1043404EB8B0BA345ECD0E4
:1052A8003B46324654F8041F2846FFF7CDFFF5E782
:1052B80043465AF8041F2846019209F10109FFF7ED
:1052C800C3FF019A11E01F2B1FD1002EE3D0D5F8A0
:1052D8000C8004F1040A4FF0000986F0010208F17D
:1052E8000103EB600BF1FF330093009B4B45DFDCC0
:1052F8000BF101013B463246284654F82110FFF7CE
:10530800A3FFAB6A41469B6AACE7202B03D1A46894
:1053180086F001069EE721462846FFF75FFFAB6A45
:105328003A463146DB6E686A03B0BDE8F04F18476D
:10533800026A38B5127804460B46072A06D0022AB4
:1053480004D0154ABDE83840FFF7E6BD9D6885B929
:10535800A36A0F21606A1B6B9847A36A0021606AE1
:10536800D3F8CC30984720460121BDE83840FFF7F4
:10537800EDBBAB070BD12B79AF2B08D12046A96821
:10538800FFF72CFF2046BDE83840FFF767BC2946E9
:105398002046FFF723FFE0E7E7B2040870B543783B
:1053A80004461546CE68012B06D1036A0A462946EB
:1053B8001B8BFFF78CFC70610023716920461A462D
:1053C800FFF7ECFBF1682046FFF708FF062D05D133
:1053D800A36A0021606AD3F888309847A36A01213C
:1053E800606AD3F8BC500023AC461A46BDE870404A
:1053F800604738B505460C46C968FFF7EFFEA16857
:105408002846BDE83840FFF7E9BE0B79342B70B564
:1054180004460D4610D18968FFF7E0FEED68AD68D7
:1054280085B9A36A0F21606A1B6B9847A36A042297
:105438000221D3F8A0301AE0836A0F21406A1B6B5F
:105448009847ECE7AB071FD12B799A2B13D1A36AA6
:105458000F21606A1B6B9847A9680029E6D020468F
:10546800FFF7BCFEA36A04220321D3F8A030606AC8
:10547800BDE8704018479B2B06D1A9682046FFF766
:10548800ADFEEB689968E8E729462046FFF7A6FED7
:10549800CCE710B504468968FFF7A0FE0021A36A8F
:1054A800606ADB6CBDE81040184700002DE9F34145
:1054B8008D68044617465DB9002A72D0836A0222B5
:1054C8002946D3F8A030606A02B0BDE8F041184719
:1054D80015F0030640F081802B79372B13D132B1B8
:1054E800836A02220121406AD3F8A03098472046F7
:1054F8002946FFF773FEA36A606AD3F8A43002B0A6
:10550800BDE8F04118479F2B67D1EB681A79A12AAB
:1055180051D1A22101AA03F10800FFF777F8A96881
:10552800804609B38B071FD10B79372B1CD137B1B4
:10553800A36A411C0222606AD3F8A0309847A96880
:105548002046FFF74BFEA36A0127606AD3F8A43010
:10555800984746450DD127BBA36A0322711C606A90
:10556800D3F8A03098471CE020460027FFF736FE06
:10557800EFE7019B53F8261051B1880708D10B7942
:10558800372B05D12046FFF729FE6FB9184A04E0EA
:105598002046FFF723FE67B1164A29462046FFF743
:1055A800BBFC02B0BDE8F081A36A606AD3F8A430FE
:1055B80098470136CDE7AB685BB19A0709D11B79EB
:1055C800372B06D10422294602B0BDE8F041FFF787
:1055D800E5BE052229462046F6E729462046FFF77C
:1055E800FDFDA36A03220121D3F8A0306BE700BFB9
:1055F80003B30408F2B204080122FFF757BF70B5DD
:105608000D46C9680446FFF7E9FDA968A36AC1F316
:105618000711606AD3F89830332916BF3F39022141
:10562800C9B2BDE870401847F8B54F680C46002667
:1056380089683F0A0C340546FFF7D0FD0236083466
:10564800B74200DCF8BD54F8041C2846FFF7C6FD35
:1056580054F8081CAB6A0909686AD3F89C302439E5
:10566800C9B29847EAE72DE9F0414E680C46012790
:105678000546A6F10D08360A54F8081F5FFA88F89F
:10568800FFF7ACFDB74201DBBDE8F08154F8041F19
:105698002846FFF7A3FDAB6A4146686AD3F89C30F9
:1056A80001379847EEE72DE9F0414E680D468968C5
:1056B8000446360A0127FFF791FD032E89BFD4F867
:1056C8000C804FF0000808F10103E3607B1C9E4248
:1056D80022DC032E55D9E568606A6B1C2946E36015
:1056E800A36A9B6E9847A36A4146606A9B6A98477B
:1056F800A36A0121606A9B689847A36A606A1B6E67
:105708009847A36A606ADB6D9847A36A2946606A6E
:105718009B6ABDE8F0411847023729692046FFF720
:105728005DFDB74207DAA36A606A5B6D9847A36AB2
:10573800606A5B6E9847EB68A26A03F00F01606AC3
:10574800D2F89C200A2911D1C3F30713252B16BFC1
:10575800343B0621D9B29047B74205DAA36A4246DC
:105768000021606A1B6F98470835AFE719798529CA
:1057780001D13221EFE79B680BB90721EBE7332111
:10578800E9E7BDE8F08110B504468968FFF726FD12
:105798000321A36A606AD3F89830BDE8104018471F
:1057A8002DE9F0470D46D0F80C800446002755F83F
:1057B800046F5FFA86F9360AA9F11E03D3F10009CE
:1057C80049EB030908F10103C360B74206DBA36A8A
:1057D8004146606A9B6ABDE8F0471847013755F8AB
:1057E800041F2046FFF7FAFCB742F0DAA36A4246E4
:1057F8004946606A1B6F9847E7E7000001F00F030E
:10580800022B70B5044611D00B79492B06D04F2BCB
:1058180004D04A2B01D0502B03D170BD0123A370B3
:10582800FBE7482B0CBF0D69CD685DB9A378002B49
:10583800F3D1638A002BF0D020461C4ABDE87040A3
:10584800FFF76ABB83788E683BB3038A01339BB248
:10585800012B03820ED1418AD0E90903D1B1D3F8D3
:10586800A03000229847A36A02220021606AD3F878
:10587800A030984729462046FFF7B0FCA36A606A23
:1058880031099B6B9847A36A606AD3F8A430BDE8D6
:10589800704018471B6C9847E5E7438A294601334F
:1058A800BDE870404382FFF799BC00BF0EB30408FF
:1058B8002DE9F041C5680446D1F80C800E46AB1CB2
:1058C8000022D8F808106F1CC3602B46FFF7BCFCF9
:1058D800B1682046FFF782FCA36A3946606A9B6E6E
:1058E8009847A36A2946606A9B6A9847A36A606AD0
:1058F8004FF0FF319B689847D8F80C102046FFF707
:105908006DFCA36A3946606A9B6ABDE8F041184796
:105918002DE9F047C6680446D0F814A00D46B31C1C
:1059280006F10108B0F81A90C360038B8682A0F8CC
:10593800168043838868FEF717FCF8B9E768A868FB
:105948007B1CE360FEF713FC20B9A36A4146606A3A
:105958009B6E9847A36A3946606A9B6A9847E968CC
:105968002046FFF73BFCA36A4146606A9B6A98475A
:105978003B460122A9682046FFF766FC29692046B4
:10598800C4F814A0A4F81A90FFF728FCA36A3146BB
:10599800606A9B6ABDE8F04718472DE9F347C66877
:1059A80004460D46731CC3608868FEF7DDFB02469B
:1059B800E8B9E7682046A9687B1CE3603B46FFF727
:1059C80043FC2046E968FFF709FCA868FEF7CFFB0F
:1059D800D8B92B690BB96B6923B1A36A3146606AE0
:1059E8009B6E9847A36A3946606A9B6A984701AAE2
:1059F800712105F110000027FEF708FE81464F458A
:105A08000BD169692046FFF7E9FBA36A3146606A52
:105A18009B6A984702B0BDE8F087019B53F827803E
:105A2800D8F80800FEF7A0FB0246F8B9D4F80CA095
:105A38002046D8F808100AF10103E3605346FFF73F
:105A480003FC2046D8F80C10FFF7C8FBD8F808006C
:105A5800FEF78DFB0028D8D1A36A3146606A9B6E99
:105A68009847A36A5146606A9B6A98470137C6E718
:105A7800184B2DE9F041D3F80C7204460D463FBB94
:105A8800C66801228968731CC3603346FFF7DCFBD4
:105A9800A36A1F2101225B69606A9847E96851B1CE
:105AA8002046FFF79BFBA36A3A460121D3F8BC5076
:105AB8003B46606AA847A36A0121606AD3F8C830E8
:105AC8009847A36A3146606A9B6ABDE8F041184767
